:020000040800F2
:1000000010150020E9010008F1010008F3010008C3
:10001000F5010008F7010008F901000800000000E0
:10002000000000000000000000000000FB010008CC
:10003000FD01000800000000FF01000801020008A7
:10004000030200080302000803020008030200087C
:100050000302000803020008251800080302000834
:10006000030200080302000803020008030200085C
:10007000030200080302000803020008030200084C
:10008000030200080302000803020008030200083C
:10009000030200080302000803020008030200082C
:1000A000030200080302000803020008030200081C
:1000B00003020008752F0008AD3000080302000895
:1000C00003020008030200080302000803020008FC
:1000D000030200089D320008030200080302000822
:1000E00003020008030200080302000800F002F8FF
:1000F00000F06AF80AA090E8000C82448344AAF158
:100100000107DA4501D100F05FF8AFF2090EBAE855
:100110000F0013F0010F18BFFB1A43F0010318473B
:100120006C7400008C7400000A444FF0000C10F84E
:10013000013B13F0070408BF10F8014B1D1108BF65
:1001400010F8015B641E05D010F8016B641E01F805
:10015000016BF9D113F0080F1EBF10F8014BAD1C55
:100160000C1B09D16D1E58BF01F801CBFAD505E073
:1001700014F8016B01F8016B6D1EF9D59142D6D3CD
:10018000704700000023002400250026103A28BFF5
:1001900078C1FBD8520728BF30C148BF0B607047F9
:1001A000662905F0C884642900F088800020704723
:1001B0001FB500F003FC04000020002104F054FCF3
:1001C000E0601FBD10B510BD00F000FD1146FFF747
:1001D000EFFF03F031FF00F01EFD03B4FFF7F2FF65
:1001E00003BC03F0EDF900000948804709480047C7
:1001F000FEE7FEE7FEE7FEE7FEE7FEE7FEE7FEE7D7
:10020000FEE7FEE704480549054A064B7047000033
:10021000152F0008ED000008100F00201015002019
:100220001011002010110020704700000FB4044985
:1002300010B503AA029800F0AFFB10BC5DF814FBE8
:10024000100000200FB41CB5074B06AA7B4469467A
:100250000090059800F087FB0020694600F096FBAF
:100260001CBC5DF814FB00003D07000070B504469F
:1002700085690068C10601D5302600E02026C00748
:1002800007D070BDD4E9012130469047206A401C58
:1002900020626D1EF6D570BD70B504468569007884
:1002A000C00707D170BDD4E9012120209047206A02
:1002B000401C20626D1EF6D570BD00002DE9F04196
:1002C0000646002410687529314616A510D0AFF3F4
:1002D0000080002802DA404213A507E031688A074F
:1002E00001D512A502E0490704D511A5012401E0BA
:1002F000AFF3008000210A2206F1240709E0B0FBD9
:10030000F2FCB0FBF2F302FB1C00303078541846CC
:10031000491C0028F3D123462A463046BDE8F04167
:1003200000F0B3B8000000002D0000002B0000001A
:10033000200000002DE9F05F894604464FF0000AD6
:10034000DFF824B1FB44C0F820A02046E1688847CC
:1003500000287DD0252806D0D4E901219047206AC5
:10036000401C2062F1E700255F462046E16888478F
:100370002028064607DB312E05D2B81910F8200CCC
:1003800008B10543F1E7A80701D525F00405C4F835
:100390001CA00027C4F818A02A2E09D0304603F06C
:1003A00008F938B304EB8708303EC8F8186019E044
:1003B00059F8041B204604EB87029161E1688847E5
:1003C000012F064618D1E069002820DA25F0200523
:1003D0001DE0D8F8180000EB800006EB4000303834
:1003E000C8F818002046E1688847064603F0E1F89F
:1003F0000028EED1012F0AD02E2E08D12046E16828
:1004000088477F1C0646022F45F02005C4DBA06903
:10041000002803DA404245F00105A061E80701D059
:1004200025F01005A6B1A6F14100192802D8203602
:1004300045F400654A463146204625604D46FFF7A3
:10044000AFFE60B1012807D0ED1D25F0070000E0E8
:1004500007E000F1080978E705F1040975E730467F
:100460007AE7206ABDE8F09F5C7100007047704732
:100470007047704710B500F0A5FA006810BD10B5C0
:10048000044600F09FFA046010BD2DE9F0470D46C8
:1004900099469246044600F124080168880604D56E
:1004A000E06921F01001216000E00120A84201DD97
:1004B000471B00E00027A1697A1902EB0900081A1E
:1004C000A0612078C00602D42046FFF7CFFE0026A8
:1004D00008E0D4E901211AF806009047206A401C80
:1004E000761C20624E45F4DB2078C0060AD52046F3
:1004F000FFF7BCFE06E0D4E9012130209047206AD6
:10050000401C2062381EA7F10107F4DC07E0D4E9A3
:10051000012118F805009047206A401C2062281E1F
:10052000A5F10105F3DC2046FFF7B6FE20780006B2
:1005300002D50220BDE8F0870120FBE770472DE9D6
:10054000FF4F0C461E464FF0FF378BB0D2E900013B
:10055000DDF860800A908A46C1F30A5505B93D4628
:10056000002108464FF00000BAF1000F00F44000EF
:1005700005DA00EB80004FF4400101EA50004FEA39
:100580009059B9F1010F00DDB9460A9850EA4A00C6
:100590000ED044F61050A5F2FF3545432F14B8F1A4
:1005A000000F1ED07542291E1EDDC9F100021CE09D
:1005B000B8F1010F4FF0000001D0302103E0F24309
:1005C00005E02154401CB042FBDB304600220021F4
:1005D00021540B99C1F80880C1E900200FB0BDE893
:1005E000F08FBD1B6D1CDEE74A4600DA694206A8A3
:1005F00000F072FA06AB93E8070003AB83E807004C
:1006000050460A9900F050FB8DE80700A0F5005015
:100610001F3800900398002D0ADD42F21F014A4660
:100620000844002303A90390684600F0B9FD09E0DF
:10063000A0F500504A461F38002303A903906846DE
:1006400000F0C3FD8DE807000004000C03D04FF05C
:10065000FF30410800E01046B8F1000F03D000223F
:10066000009215461EE0751E05D400F0AFF9303239
:1006700062556D1EF9D5B3460122084302D000220F
:100680007F1C04E02078302801D100227F1E002A40
:10069000099784D01DE0112D07DA00F097F9303268
:1006A00062556D1C50EA0102F5D1084302D0009852
:1006B000C8B10EE00021681E05E0235C625C635453
:1006C0002254401E491C8142F7DBAB46A81B401E4A
:1006D0000990002004F80B000B98099AC0F80880D4
:1006E000C0E9002B7AE711264FF0000857E72DE903
:1006F000F04F88460446D21D22F0070191B0D1E99F
:100700000001CDE90A0102F0DAFE02460B98C00FA3
:1007100001D02D2007E02068810701D52B2002E0C1
:10072000202101EAC000032A099001D0072A05DB35
:1007300003464146204600F08FF90BE12078800601
:1007400001D5E06900E00620B8F1650F814606D0CA
:10075000B8F1660F18D0B8F1670F70D131E0002002
:10076000B9F1110F009001DB112301E009F1010340
:100770000AAA01A90CA8FFF7E2FEDDE90C70002629
:1007800009F10105834647E001204B4600904FF0F8
:1007900000470AAA01A90CA8FFF7D1FEDDE90DB0B8
:1007A0000C995D46002610B909F101000D18B9EB4E
:1007B000050003D4C0F1FF3609F10105A5EB0900DE
:1007C0002BE0B9F1010F01DA4FF001090020B9F176
:1007D000110F0090484601DD112300E003460AAAEC
:1007E00001A90CA8FFF7ABFEDDE90C704D46002611
:1007F0008346207800070AD4AB4500DA5D4601A89D
:10080000012D04DD411911F8011C302907D04F4595
:1008100002DA17F1040F04DA012082460FE06D1EA0
:10082000EEE7002F02DCED1B3E4403E0781CA842FB
:1008300000DD7D1CB81B00F1010A4FF00047207855
:10084000000703D4AA4501DB4FF0FF3A0021B7F1BE
:10085000004F0DF143088DF8431024D002202B23C4
:10086000002F01DA7F422D230A21021EA0F1010090
:1008700000DC5FB197FBF1FC97FBF1F201FB1C7C04
:1008800017460CF1300C08F801CDEEE7A8F1010095
:1008900003702188090501D5452100E06521A0F1FB
:1008A000010800F8011C09980FA9A1EB0807FF1D1A
:1008B00000B10120411901EBEA70A1693844081A1E
:1008C000401EA0612078C00602D42046FFF7CEFC6F
:1008D000099828B1D4E901219047206A401C206280
:1008E0002078C00622D52046FFF7C0FC1EE0002E6F
:1008F00004DBB34502DD01A8805D00E03020D4E9CF
:1009000001219047206A401C2062761CAAF1010058
:100910005FEA000A0AD100F051F8C0680168405C43
:10092000D4E901219047206A401C2062281EA5F1CD
:100930000105DCDC07E0D4E9012118F8010B904740
:10094000206A401C2062381EA7F10107F3DC204614
:10095000FFF7A2FC032011B041E6000001694A1C28
:1009600002610878704700B58FB0CDE901310021F0
:10097000059105497944CDE9031011466846FFF712
:10098000D9FC0FB000BD0000E5FFFFFF0A6802F8C8
:10099000010B0A6070470000074B70B50D467B44A1
:1009A000FFF7E1FF0446284600F008F910B14FF0C8
:1009B000FF3070BD204670BDAF2D0000004870476D
:1009C000CC0E002000487047AC0E002030B5B0F1CE
:1009D0000A024FEA900E71F100034EEA817EB0EBFD
:1009E0000E0061EB91014FEA101E4EEA017E10EB02
:1009F0000E0041EB11114FEA102E4EEA016E10EB82
:100A00000E0041EB11214FEA104E4EEA014E10EB61
:100A10000E0041EB1141401841F100014FEAD000B6
:100A200040EA41704FEAD10110EB80054FEA8104A2
:100A300044EA907444EB01046D1944EB0404521B26
:100A4000A3414FF0000348BF0A3200D530BD401C1F
:100A500041F1000130BD00002DE9F0411F46044680
:100A600003260168072A01F4006004DB08B116A51B
:100A700005E016A503E008B115A500E015A521F0D5
:100A800010002060A069C01EA0610FB1401EA061CF
:100A90002046FFF7EBFB4FB1D4E9012138469047E0
:100AA000206A401C2062C01C206206E0206AFAE72F
:100AB000D4E9012115F8010B9047761EF8D22046A3
:100AC000FFF7EAFBBDE8F0814E414E006E616E001B
:100AD000494E4600696E66002DE9F047814616468C
:100AE0008AB0354878440DC88DE80D003248784406
:100AF000801C03AC0DC884E80D0041F69B3008440F
:100B0000372190FBF1F290FBF1F5A5F1800501FB97
:100B100012041B3C02D56442012000E00020DFF8F3
:100B200098A080460027FA44AAF1BE0A0EE0E0072A
:100B30000AD03246684607EB470101230AEB8101E0
:100B400000F043FB8DE8070064107F1C002CEED101
:100B5000194F7F44AE3F19E0E80715D007EB0410AA
:100B60000DF1180A90E80E008AE80E00C068F04205
:100B700001D1981908903246012306A903A800F074
:100B800024FB03AB83E807006D10641C002DE3D148
:100B90004FF0010332466946B8F1000F03A802D0B6
:100BA00000F0FEFA01E000F010FBC9E90001C9F80D
:100BB00008200AB0BDE8F0878C6A0000007B00F0D6
:100BC0008000704700487047AC0E00207546FFF764
:100BD000F9FFAE4605006946534620F007008546FA
:100BE00018B020B5FFF70EFBBDE820404FF000061F
:100BF0004FF000074FF000084FF0000B21F0070105
:100C0000AC46ACE8C009ACE8C009ACE8C009ACE847
:100C1000C0098D46704710B50446AFF300802046EA
:100C2000BDE81040FFF7D9BA4FF0013C50F8042B53
:100C300051F8043B9A4221D1A2EB0C03934313EAEF
:100C4000CC1317D150F8042B51F8043B9A4215D11C
:100C5000A2EB0C03934313EACC130BD150F8042BF3
:100C600051F8043B9A4209D1A2EB0C03934313EAD7
:100C7000CC13DBD04FF00000704700BFD01A01BA90
:100C8000B1FA81F101F0180122FA01F0CB40C1F173
:100C90002001DBB2C0B2C01A2CFA01F3D11A914381
:100CA00011EAC311E6D170475FEA400C08BF91F02A
:100CB000000F4FEA8C234FEAC12243EA51514FEA19
:100CC0001C5018BF00F5F0404FEA300018BF41F04B
:100CD00000415FEA6C5C00F02980BCF1FF3F08BF77
:100CE00040F080407047130C06BF12044FF0100C08
:100CF0004FF0000C130E04BF12020CF1080C130F7E
:100D000004BF12010CF1040C930F04BF92000CF10C
:100D1000020CD30F04BF52000CF1010C11464FF02E
:100D20000002A0F11F00A0EB0C00704711F0004F73
:100D300008BF704731F000413FF4D5AF0B0C06BF40
:100D400009044FF0100C4FF0000C0B0E04BF090209
:100D50000CF1080C0B0F04BF09010CF1040C8B0FF4
:100D600004BF89000CF1020CCB0F04BF49000CF149
:100D7000010CCCF12003A0EB0C0022FA03F302FAE1
:100D80000CF241EA030100F10100704720F07F4CB2
:100D900080EA030023F07F47ACEB070303F57C53A5
:100DA00000F0004003F1FF032DE980494FEA154BA5
:100DB00009B44FEA144325EA0B4E24EA03480FF224
:100DC000042606EB132749083E785FEA320203FB4C
:100DD0000667C7F5000707FB06F64FEA54374FEAE8
:100DE000D64606F1020607FB066CCCF1005C4FEA22
:100DF0001C472CEA074C07FB06F40CFB06F504EB3A
:100E000015464FEA961634BF00204FF000404FEAD7
:100E1000D13706FB07FC4FEA1C4C0CFB0BF7D21B2F
:100E200003FB0CF761EB07010CFB0EF7B0EB07407F
:100E300072EB17420CFB08F734BFA2EB0742B2EB90
:100E4000074261EB17414FEA0C444FEA910706FB5A
:100E500007FC4FEA1C4C0CFB0BF7B0EBC74072EBE6
:100E6000573203FB0CF734BFA2EBC742B2EBC742C9
:100E700061EB57310CFB0EF7B0EBC70072EB57720A
:100E80000CFB08F734BFA2EBC702B2EBC70261EB61
:100E90005771039F4FEA816141EA921104EBCC0440
:100EA0004FEAD1374FEA826206FB07FC42EA901212
:100EB0004FEA80604FEA1C4C0CFB0BF7D21B03FB84
:100EC0000CF761EB07010CFB0EF7B0EB074072EB80
:100ED00017420CFB08F734BFA2EB0742B2EB074204
:100EE00061EB17414FEA8C554FEA910704EB9C24C4
:100EF00006FB07FC4FEA1C4C0CFB0BF7B0EBC740A2
:100F000072EB573203FB0CF734BFA2EBC742B2EBD4
:100F1000C74261EB57310CFB0EF7B0EBC70072EB29
:100F200057720CFB08F734BFA2EBC702B2EBC70243
:100F300061EB577115EB4C254FEA816141EA921143
:100F40004FEA82624FEAD13742EA901206FB07FC71
:100F500044F100044FEA80604FEA1C4C0CFB0BF795
:100F6000D21B03FB0CF761EB07010CFB0EF7B0EB98
:100F7000074072EB17420CFB08F734BFA2EB0742A5
:100F8000B2EB074261EB174115EB1C154FEA8131BB
:100F900041EA92414FEA823242EA90424FEA80307F
:100FA0004FEA0C7644F1000448EA03434EEA0B484A
:100FB0004FF0000EB2EB080C71EB030724BF624642
:100FC00039464EEB0E0E4FF0000B001852414941CE
:100FD0004BEB0B0BB2EB080C71EB03077BF1000B37
:100FE00024BF624639464EEB0E0E4FF0000B001840
:100FF000524149414BEB0B0BB2EB080C71EB030771
:101000007BF1000B24BF624639464EEB0E0E51EACF
:10101000020718BF46F0010616EB0E7655F10002E6
:1010200054F1000103D5BDE88901BDE80088BDE8A1
:101030008901BDE80048B619524141EB0101A3F115
:101040000103704780807F7E7D7C7B7A797877761C
:1010500076757473727171706F6E6E6D6C6C6B6A95
:101060006A69686867666665646463636261616033
:10107000605F5F5E5E5D5D5C5C5B5B5A5A595958B0
:10108000585757565655555554545353525252511A
:10109000515050504F4F4F4E4E4D4D4D4C4C4C4B70
:1010A0004B4B4A4A4A4949494848484747474746B7
:1010B00046464545454444444443434343424242F3
:1010C00042414141002B9C4630D477002BD01CB5C7
:1010D0004FEA370703B44FF010004FF01001BAF198
:1010E000000F06D0BCF1000FDCBF40F0080040F05C
:1010F00008014FF000000FBCBDE810400BF1010BE0
:10110000BBF1010F08BF5FEA170722BF12F101020E
:1011100011F101014FF0004143F1000300F00040E4
:1011200043EA00007047F9D35708D0E746EA06467D
:1011300013F1400F4FEA16461FDD13F1200FDFBFFA
:1011400016430A46002120335B42BED0C3F120077C
:1011500046EA064602FA07F74FEA164646EA070647
:10116000C3F1200722FA03F201FA07F721FA03F18B
:101170004FF0000342EA0702A7E746EA020646EA02
:1011800006464FEA164646EA0106BCBF46EA064650
:10119000360C4FF000034FF000024FF0000194E7CF
:1011A0002DE9804C9A46934670B491E8380007C800
:1011B00031EA400C48BF34EA430C03D5FFF7E6FDA3
:1011C000FFF780FFF0BCBDE8008C2DE9804C9A460B
:1011D000934670B491E8380007C810F0804F08BFFC
:1011E00013F0804F03D100F005F8FFF76BFFF0BC60
:1011F000BDE8008C20F07F4780EA030023F07F4C9D
:1012000007EB0C03A3F57C5300F00040A3F1FE03B1
:1012100092F0000F00F0B38095F0000F00F077809F
:101220002DE901494FEA11404FEA144621EA0048EE
:1012300000FB06FC24EA064708FB06F607FB08F855
:1012400000FB07F718EB06484CEB164C4FEA124B25
:1012500018EB07484FEA15464CEB174022EA0B4EB5
:101260000BFB06FC25EA06470EFB06F607FB0EFE07
:101270000BFB07F71EEB064E4CEB164C4FF000062F
:101280001EEB074E4CEB174B18EB0B0840F1000020
:1012900018EB0E0B58EB000840F100008F1A4FF0CE
:1012A00000013CBFC943661B14BFB5EB040C002111
:1012B0003CBFC943F61B4FEA17444EEA8E0E27EA9D
:1012C00004454FEA1C4704FB07622CEA074C05FB68
:1012D00007F70CFB05F604FB0CFC16EB074642EB8C
:1012E000174216EB0C4642EB1C421BEB060658EB72
:1012F0000202414146EA9E0601D5BDE80189B619C0
:10130000524141EB0101A3F10103BDE801894FEA1C
:1013100014454FEA114724EA054621EA074C05FB2C
:1013200007F406FB07F70CFB06F105FB0CFC11EBC1
:10133000074144EB17444FEA124711EB0C4144EBD1
:101340001C4422EA074C05FB07F206FB07F70CFBDF
:1013500006F605FB0CFC16EB074642EB174216EBB4
:101360000C4642EB1C456A1854F1000148BF704717
:10137000B619524141EB0101A3F10103704795F009
:10138000000F37D04FEA11424FEA144721EA0246D4
:1013900024EA074C02FB07F106FB07F70CFB06F4F7
:1013A00002FB0CFC14EB074441EB17414FEA1547D5
:1013B00014EB0C4441EB1C4125EA074C02FB07F5FA
:1013C00006FB07F70CFB06F602FB0CFC16EB0746C8
:1013D00045EB174516EB0C4645EB1C42121951F133
:1013E000000148BF7047B619524141EB0101A3F11A
:1013F000010370474FEA14454FEA114724EA0546B6
:1014000021EA074C05FB07F106FB07F70CFB06F288
:101410004FF0000605FB0CFC12EB074241EB1741B5
:1014200012EB0C4251EB1C4148BF7047921841EB44
:101430000101A3F10103704721B1826842F001026A
:10144000826003E0826822F001028260704700003F
:1014500010B504461248844208D10121401501F01C
:10146000CDFA0021601501F0C9FA17E00D48844259
:1014700008D10121001501F0C1FA0021201501F069
:10148000BDFA0BE00848844208D10121C80301F0ED
:10149000B5FA00214FF4004001F0B0FA10BD000091
:1014A0000024014000280140003C0140014600208A
:1014B0008A6802F004020AB1012000E000207047AF
:1014C0000146C86C80B270470246002013680B408A
:1014D0000BB1012000E000207047014600208A681F
:1014E00002F008020AB1012000E00020704700006D
:1014F00030B502460020002350680F4C20400D7983
:101500000C6844EA05242043506090680B4C20404E
:10151000D1E902542C434D7944EA450420439060BC
:10152000D06A20F470000C7C641EE4B2234340EACD
:101530000350D06230BD0000FFFEF0FFFDF7F1FF69
:10154000F0B504460D4600200021092D11DDE068AC
:10155000A5F10A0606EB4607072606FA07F18843B7
:10156000A5F10A0606EB460603FA06F10843E06019
:101570000CE0206905EB4507072606FA07F18843CA
:1015800005EB450603FA06F108432061072A0FDA46
:10159000606B561E06EB86071F2606FA07F1884386
:1015A000561E06EB860605FA06F10843606322E044
:1015B0000D2A0FDA206BD61F06EB86071F2606FAC8
:1015C00007F18843D61F06EB860605FA06F10843A5
:1015D000206310E0E06AA2F10D0606EB86071F26E5
:1015E00006FA07F18843A2F10D0606EB860605FA16
:1015F00006F10843E062F0BD816841F008018160B6
:10160000704721B1826842F4A002826003E08268E0
:1016100022F4A00282607047816841F00401816079
:101620007047000000B587B00121042001F0D6F911
:101630005420ADF8180003208DF81A0000208DF812
:101640001B0006A92A4800F007FA4FF48070ADF895
:10165000180004208DF81B0006A9254800F0FCF9AD
:101660000121480201F0BAF94FF4004001F09AF963
:101670002048FFF7EDFE002001908DF808008DF85E
:1016800009004FF4602003900020049001208DF8A1
:10169000140001A91748FFF72BFF0723012202219D
:1016A0001448FFF74DFF0723012204211148FFF7DB
:1016B00047FF0723012206210E48FFF741FF0121C2
:1016C0000C48FFF7B9FE0B48FFF796FF00BF09482B
:1016D000FFF703FF0028FAD10648FFF79DFF00BF80
:1016E0000448FFF7E3FE0028FAD107B000BD000070
:1016F000000801400024014008B50121082001F044
:101700006DF94FF40070ADF8000010208DF8030063
:1017100003208DF802006946044800F09DF94FF45B
:101720000071024800F075FA08BD0000000C01408D
:10173000F8B5054600246DE0C4EBC400374901EB61
:10174000800005EB0413D3E901621968DB68C0E986
:101750000162C3600160C4EBC401304A02EB810145
:10176000C868012101F03AF9C4EBC4002B4901EB30
:10177000800000892DF82400C4EBC40011F820007B
:10178000694601EB8401C8706A4602EB8401C4EB30
:10179000C402224B03EB8202506800F05DF9012085
:1017A000C4EBC4011D4A02EB810108740021C4EBA3
:1017B000C40002EB80004174C4EBC40002EB800063
:1017C0008174C4EBC400114611F82000482806D1EA
:1017D0000021C4EBC40002EB8000C17406E00121CB
:1017E000C4EBC4000D4A02EB8000C1740021C4EBBD
:1017F000C4000A4A02EB80000175C4EBC40002EB8E
:10180000800041750649C4EBC40002EB8000816191
:10181000601CC4B2012C8FDBF8BD000080060020E4
:101820008D1D000810B5012001F00CFF01200A49B0
:1018300008800A4800680A49D1F80C11884203D18F
:1018400006200549488002E007200349488001201E
:1018500000F008F810BD00001600002000812142B1
:1018600000802142014908607047000014040140D3
:10187000002123498279002A3AD00A461268036877
:101880009A430B461A600A1D126803689A430B1D9F
:101890001A60027911440A6803681A430A60184AF8
:1018A0000832126803689A43154B08331A601A1DF0
:1018B000126803689A43124B0C331A604279102A5B
:1018C0000ED11A1F126803681A430D4B08331A60B1
:1018D0001A1D126803681A43094B0C331A600DE095
:1018E0000749427911440A6803681A430A6005E00F
:1018F000027911440A6803689A430A60704700003D
:101900000004014030B5044604254FF4302000F0B7
:101910006FF80546042D17D10C48006940F002000D
:101920000A49086108464461006940F040000861C6
:101930004FF4302000F05CF805460448006941F699
:10194000FD71084001490861284630BD0020024071
:1019500004200B49C96801F0010109B101200EE022
:101960000749C96801F0040109B1022007E00449F0
:10197000C96801F0100109B1032000E0042070479C
:10198000002002400348006940F0800001490861DE
:10199000704700000020024070B504460D46042642
:1019A000F00200F025F80646042E11D1094800691E
:1019B00040F00100074908612580F00200F018F8A6
:1019C00006460448006941F6FE7108400149086175
:1019D000304670BD00200240024803494860034879
:1019E000486070472301674500200240AB89EFCD76
:1019F00000B502460423FFF7ABFF034603E0FFF701
:101A0000A7FF0346521E012B01D1002AF7D102B9CC
:101A10000523184600BD000030B500228B071C0FBF
:101A20000F2303FA04F20B4B8C1053F8243093432A
:101A3000084C8D1044F8253023468C1053F8243080
:101A40008C07240F00FA04F42343024C8D1044F851
:101A5000253030BD080001402DE9F0410246002547
:101A60000026002000230024002791F803C00CF07A
:101A70000F0591F803C00CF0100CBCF1000F03D05F
:101A800091F802C04CEA050591F800C0BCF1000FC6
:101A900031D0146800202BE04FF0010C0CFA00F359
:101AA000B1F800C00CEA03069E4220D183004FF03B
:101AB0000F0C0CFA03F7BC4305FA03FC4CEA0404D0
:101AC00091F803C0BCF1280F06D14FF0010C0CFABD
:101AD00000FCC2F814C00AE091F803C0BCF1480F42
:101AE00005D14FF0010C0CFA00FCC2F810C0401CEC
:101AF0000828D1D31460B1F800C0BCF1FF0F34DD69
:101B0000546800202EE000F1080C4FF0010808FA9C
:101B10000CF3B1F800C00CEA03069E4221D1830009
:101B20004FF00F0C0CFA03F7BC4305FA03FC4CEA28
:101B3000040491F803C0BCF1280F05D100F1080C92
:101B400008FA0CF8C2F8148091F803C0BCF1480FF1
:101B500007D100F1080C4FF0010808FA0CF8C2F8A0
:101B60001080401C0828CED35460BDE8F0810000EE
:101B7000F0B50A46002300240021002500F00046AD
:101B8000B6F1004F02D11D4EF16901E01B4E7168A4
:101B9000C0F3034583B200F44016B6F5401F08D1E8
:101BA00021F07061154E766826F07066134F7E60E6
:101BB00012E000F48016B6F5801F06D1032606FA5F
:101BC00005F4A14341F0706106E0460D360103FAC9
:101BD00006F6B14341F0706122B1460D360103FAB9
:101BE00006F6314300F00046B6F1004F02D1034E35
:101BF000F16101E0014E7160F0BD000000000140A4
:101C00000246002093680B400BB1012000E0002049
:101C100070474161704701617047000010B504468C
:101C20000723012221460948FFF78AFC01210748C2
:101C3000FFF7E7FC00BF02210448FFF745FC00283E
:101C4000F9D00248FFF73CFC10BD00000024014021
:101C500070B500242DE0C4EBC400174901EB8000EF
:101C6000007C00B923E0C4EBC400134901EB8005FC
:101C7000C4EBC40001EB8000866995E80F00B04713
:101C8000C4EBC4010C4A02EB8101C97C884206D135
:101C90000121C4EBC40002EB8000817406E0002146
:101CA000C4EBC400044A02EB8000817400BF601CD6
:101CB000C4B2012CCFDB70BD8006002000B589B016
:101CC0000121084600F07AFE0121042000F086FE82
:101CD0000120ADF8200018208DF8230003208DF896
:101CE000220008A91748FFF7B7FE17480088401ED2
:101CF00080B2ADF8180040F2CF20ADF814000020FB
:101D0000ADF81A00ADF8160005A94FF0804001F0BB
:101D100073FA6020ADF804000120ADF80600002041
:101D2000ADF80C0001A94FF0804001F00DFA082138
:101D3000C80601F055FA0121880701F0DEF909B063
:101D400000BD000000080140580000201FB501F050
:101D5000C5FC0B4B0FCB8DE80F006846FFF7E8FC86
:101D60000121084600F03AFE01210648FFF700FF76
:101D70000548406820F02000034948601FBD00006E
:101D80002C5C000800023000002004E01FB5BDF804
:101D900008100198FFF734FF04B010BD70B50021A2
:101DA00000230F22C47804B3154C246804F4E064C3
:101DB000C4F5E064210AC1F10403CA40447804FA7E
:101DC00003F184781440214309010E4C0678A15593
:101DD000047804F01F050124AC4005786D11AD00B6
:101DE00005F1E025C5F8004109E0047804F01F057D
:101DF0000124AC40044D0678761145F8264070BDAC
:101E00000CED00E000E400E080E100E00249014365
:101E1000024A1160704700000000FA050CED00E076
:101E200070B5002419E004F1B001C8B2002100F03F
:101E30006FFB0021084600F06BFB0021102000F032
:101E400067FB002505E00121002000F061FB681C14
:101E5000C5B2802DF7DB601CC4B2082CE3DB70BD7B
:101E6000F0B5144600267F2801DC3F2900DDF0BDD7
:101E70000B46CF1701EB5777FF10C7F10707FAB2F0
:101E8000CF1701EB5777FF10A1EBC707FDB2C5F1E4
:101E900007070123BB40DEB24CB10A4B03EBC00382
:101EA0009B5C3343074F07EBC007BB5408E0054B6F
:101EB00003EBC0039B5CB343024F07EBC007BB546B
:101EC00000BFD4E79C0A00202DE9F04F06460C46DF
:101ED00017469846A346002530E017F805904FF0C6
:101EE000000A25E009F0800028B1214630460A9A10
:101EF000FFF7B6FF09E00A9808B9012000E00020CA
:101F0000024621463046FFF7ABFF4FF6FF7000EA6E
:101F10004909601CC4B2A4EB0B010998814203D1AA
:101F20005C46701CC6B206E00AF101001FFA80FA96
:101F3000BAF1080FD6DB00BF681C85B2099908FB0F
:101F400001F0C11700EB5171B5EBE10FC5DBBDE846
:101F5000F08F00002DE9F04F07460C4690461D46D5
:101F6000A346002631E01B4800EB481010F806900D
:101F70004FF0000A23E009F0800028B12A462146EC
:101F80003846FFF76DFF08E00DB9012000E00020A2
:101F9000024621463846FFF763FF4FF6FF7000EA1E
:101FA0004909601CC4B2A4EB0B00322803D15C4683
:101FB000781CC7B206E00AF101001FFA80FABAF1F4
:101FC000080FD8DB00BF701C86B2B02ECBDBBDE89B
:101FD000F08F0000C46600082DE9F04706460F4662
:101FE00090469946DDF820A034460CE03D4606E0D8
:101FF000524629462046FFF733FF681CC5B24D45BF
:10200000F6DD601CC4B24445F0DD00F0B3F8BDE875
:10201000F087000008B50121082000F0DFFC4FF434
:102020003C40ADF8000010208DF8030003208DF82F
:10203000020069464E48FFF70FFD4FF42C414C4813
:10204000FFF7E9FD4FF480514948FFF7E2FD4FF4F7
:1020500080614748FFF7DFFD642001F0F3FA4FF499
:1020600080614348FFF7D5FDC82001F0EBFA4FF43B
:1020700080613F48FFF7CFFD0021AE2000F048FA15
:102080000021084600F044FA0021102000F040FA38
:102090000021402000F03CFA0021812000F038FAB5
:1020A0000021CF2000F034FA0021A12000F030FA06
:1020B0000021C02000F02CFA0021A62000F028FA10
:1020C0000021A82000F024FA00213F2000F020FA8F
:1020D0000021D32000F01CFA0021084600F018FA75
:1020E0000021D52000F014FA0021802000F010FA21
:1020F0000021D92000F00CFA0021F12000F008FAAC
:102100000021DA2000F004FA0021122000F000FA89
:102110000021DB2000F0FCF90021402000F0F8F95C
:102120000021202000F0F4F90021022000F0F0F955
:1021300000218D2000F0ECF90021142000F0E8F9D6
:102140000021A42000F0E4F90021A62000F0E0F92D
:102150000021AF2000F0DCF90021AF2000F0D8F919
:10216000FFF75EFE0021084600F02AF808BD0000D7
:10217000000C014070B500241CE004F1B001C8B2AD
:10218000002100F0C5F90021084600F0C1F9002146
:10219000102000F0BDF9002508E0084901EBC50159
:1021A000085D012100F0B4F9681CC5B2802DF4DB94
:1021B000601CC4B2082CE0DB70BD00009C0A00204B
:1021C00070B504460D4605F1B001C8B2002100F01B
:1021D0009FF9102141EA1410002100F099F904F050
:1021E0000F0141F00100002100F092F970BD0000E4
:1021F0002DE9F84F80460F4616461C46BA46204643
:10220000E31704EB5373DB1021464FEAE47C04EB45
:102210005C7C4FEAEC0CA4EBCC0CBCF1000F02D0C0
:102220004FF0010C01E04FF0000C6344224604EB38
:10223000D27C4FEA6C0C03FB0CF303F0FF0BA6F10E
:102240002000C6B200254EE00C2C07D106EB46005C
:10225000274901EB8000405D009013E0102C05D170
:10226000244800EB0610405D00900BE0182C07D1CD
:1022700006EBC600204901EB8000405D009001E0C4
:10228000BDE8F88F4FF0000927E0009800F08000CB
:1022900028B1394640460A9AFFF7E2FD09E00A985C
:1022A00008B9012000E00020024639464046FFF709
:1022B000D7FD00984006000E0090781CC7B2A7EB2F
:1022C0000A00A04205D1574608F1010000F0FF08BE
:1022D00006E009F1010000F0FF09B9F1080FD4DBB5
:1022E00000BF681CC5B25D45AEDB00BFC8E700009B
:1022F0003C5C0008B0600008A06600082DE9FE4FB5
:1023000006460D4617461C46DDF830A001952046CE
:10231000E21704EB5272D2102146E31704EB537319
:10232000DB10A4EBC3030BB1012300E000231A442C
:102330006243D2B200920C2C05D107EB470025492D
:1023400001EBC0090AE0102C03D1234800EB471928
:1023500004E007EBC700214901EBC0094FF000087A
:1023600032E019F808B00020029025E00BF0800060
:1023700028B1E9B2F0B25246FFF772FD0AE0BAF1B5
:10238000000F01D1012300E000231A46E9B2F0B2A8
:10239000FFF766FD4FEA4B604FEA106B681C85B291
:1023A0000198281AA04203D1019D701C86B206E054
:1023B0000298401CC0B2029002980828D6DB00BFE9
:1023C00008F1010000F0FF0800988045C9DBBDE876
:1023D000FE8F0000446E00085C6E00089C730008CD
:1023E0002DE9F8430546884616461F46DDF820903D
:1023F00000240BE0CDF80090325D05EB041188B2AB
:1024000010234146FFF77AFF601CC4B2BC42F1DBE7
:10241000BDE8F8832DE9FF4F81B0074691461E467F
:102420000E9D4FF0000A002439E0301B401EC1B25F
:102430000A2002F079FAB9FBF0F00A21B0FBF1F2C0
:1024400001FB1208BAF1000F16D1701EA04213DD75
:10245000B8F1000F0ED10120AB4605EBDB7149103E
:1024600001FB04710090C8B22B4620220299FFF7AD
:10247000BFFE12E04FF0010A0120AB4605EBDB7115
:10248000491001FB04710090C8B208F13001CAB2D2
:102490002B460299FFF7ACFE00BF601CC4B2B442E9
:1024A000C3DB05B0BDE8F08F2DE9F84306460F46C3
:1024B00015461C46DDF8208021E004EBD47149105C
:1024C000C1F18001B14202DA00263819C7B2C4F165
:1024D0004000B84204DA002006460746FFF7A0FC99
:1024E000CDF800802A78234639463046FFF780FE33
:1024F000204604EBD07106EB6101CEB26D1C28784A
:102500007E2802DC28782028D7DABDE8F88300008E
:1025100070B504460E462EB14FF400611748FFF720
:102520007AFB04E04FF400611448FFF772FB0025CA
:102530001BE04FF400511148FFF76BFB04F08000E3
:1025400028B14FF400410D48FFF765FB04E04FF45C
:1025500000410A48FFF75DFB4FF400510748FFF7C1
:102560005AFB6006040E681CC5B2082DE1DB4FF46F
:1025700000610248FFF74FFB70BD0000000C0140F6
:1025800008B54C484088801F05283BD2DFE800F0A2
:102590000E0319242F004848007800EB40004749FB
:1025A00001EB80004078444908702BE042480078F5
:1025B00000EB4000414901EB800080783E49087003
:1025C00020E03D48007800EB40003C4901EB8000F2
:1025D000C0783949087015E03748007800EB4000B2
:1025E000364901EB80000079334908700AE032482F
:1025F000007800EB4000314901EB800040792E4922
:10260000087000BF00BF2C48007848B92C480078FB
:1026100030B100203F237F2201460090FFF7DCFC11
:102620002548007801281ADB23480078082816DCA2
:1026300023480078012801DA012000E00020204929
:102640000978082901DD012100E00021084330B1AB
:1026500000203F237F2201460090FFF7BDFC164873
:10266000007809281ADB144800780D2816DC144875
:102670000078092801DA012000E0002010490978DB
:102680000D2901DD012100E00021084330B10020C7
:102690003F237F2201460090FFF79EFC0649097800
:1026A00001EB4101054A02EB810188688047FFF791
:1026B00061FD08BD160000206C040020E4730008D2
:1026C0006D0400202DE9F0478048008803F06EF883
:1026D0007F4908607F48007838B1084601687E4825
:1026E00003F0B4F97D4908602EE07D48407BF0B9E5
:1026F0007B48D0F801003230B0F5C87F07DD744860
:102700000168784803F0A2F9744908601CE0744934
:10271000D1F8011001F1320003F030F804466C48A2
:102720000168204603F092F96C4908600CE06C499E
:10273000D1F8010003F022F80446654801682046FC
:1027400003F084F96549086067496448006803F04C
:1027500041F904D265480088654908609AE06549F6
:102760005E48006803F036F94AD2634801684FF0CA
:10277000804003F063F8824658480168504603F0F1
:102780005AF980465D480168404602F08BFE0746D4
:102790005B4801685B48006803F050F881463946A1
:1027A00003F04CF80546584801685648006803F0A5
:1027B00045F8814649480168484603F03FF8074616
:1027C0004D4801684548006803F040F981464D488E
:1027D0000168484603F032F88046394602F062FE4E
:1027E0000646294602F05EFE044602F08BFF47498A
:1027F00008603F480068096808443D49086049E0AE
:102800003D4801684FF0804003F018F88246334895
:102810000168504603F00FF905463848016828461C
:1028200002F040FE80463A4801683A48006803F0EA
:1028300005F88146414603F001F804463648016830
:102840003448006802F0FAFF81462448016848468F
:1028500002F0F4FF0546284801682048006803F0AC
:10286000F5F881462B480168484602F0E7FF8046AC
:10287000294602F017FE0746214602F013FE0646DF
:1028800002F040FF214908601948006809680844BF
:10289000174908601648006814490988884203DD12
:1028A000124800881249086011480068002802DABE
:1028B00000200F4908601048006810490860074868
:1028C00000680D490860BDE8F087000006000020A0
:1028D000540000206A0400200000C8424400002088
:1028E0009C0E00200000C843000048425800002011
:1028F000240000200000F041480000204C0000208F
:10290000340000202C00002030000020280000208F
:1029100040000020380000203C00002010B500F0EE
:10292000E5FF094908800948007810B9FFF7CAFE99
:1029300002E00020064908600548006881B24FF0B7
:10294000804000F056FC10BD060000206B04002003
:10295000240000200A480B4908604FF07C500A49C7
:1029600008604FF07E500949086005480849086032
:10297000084809490860094809490860704700008B
:10298000000030412C0000203000002034000020E6
:1029900038000020000040403C0000200000A04023
:1029A0004000002001460020034A506820F44040C7
:1029B00008435060704700000010024029B1064AE9
:1029C000D2690243044BDA6104E0034AD2698243CC
:1029D000014BDA61704700000010024029B1064A3D
:1029E00092690243044B9A6104E0034A926982436C
:1029F000014B9A61704700000010024029B1064A5D
:102A0000D2680243044BDA6004E0034AD26882438E
:102A1000014BDA60704700000010024030B5002121
:102A20000022002400232D4D6D6805F00C0121B11A
:102A3000042905D0082923D105E0294D056022E0AD
:102A4000274D05601FE0254D6D6805F47012234D7C
:102A50006D6805F48034022505EB92421CB9214DC6
:102A6000554305600BE01D4D6D6805F400351DB143
:102A70001C4D5543056002E0194D5543056002E0C9
:102A8000174D056000BF00BF144D6D6805F0F001E3
:102A90000909154D6B5C0568DD4045600F4D6D689B
:102AA00005F4E061090A104D6B5C4568DD40856006
:102AB0000A4D6D6805F46051C90A0B4D6B5C4568A1
:102AC000DD40C560054D6D6805F44041890B074D3B
:102AD0006B5CC568B5FBF3F5056130BD00100240C5
:102AE00000127A0000093D007005002080050020DA
:102AF00010B5FFF7ADF80024E2E0C4EBC400724962
:102B000001EB8000007D30B1012822D0032848D09D
:102B100004287CD18EE0C4EBC4006B4901EB80003B
:102B2000807C01280DD10121C4EBC400664A02EB70
:102B3000800001750021C4EBC40002EB80004175E8
:102B400006E00021C4EBC4005F4A02EB800041753F
:102B5000B3E0C4EBC4005C4901EB8000807C012839
:102B600012D10321C4EBC400574A02EB8000017567
:102B7000C4EBC40002EB800041750021C4EBC4002B
:102B800002EB800041740BE00021C4EBC4004E4A0C
:102B900002EB80000175C4EBC40002EB80004175BC
:102BA0008BE0C4EBC400484901EB8000807C012825
:102BB0000DD00021C4EBC400434A02EB8000017534
:102BC0000221C4EBC40002EB8000417531E0C4EB8C
:102BD000C4003D4901EB8000807C012822D1C4EB78
:102BE000C40001EB8000407C401CC1B2C4EBC400B7
:102BF000354A02EB800041741E2913DB0421C4EB2B
:102C0000C40002EB80000175C4EBC40000E053E097
:102C100002EB800041750021C4EBC40002EB800090
:102C2000417406E00021C4EBC400274A02EB800097
:102C3000417542E0C4EBC400234901EB8000807C75
:102C400001280DD00021C4EBC4001F4A02EB800014
:102C500001750221C4EBC40002EB800041752AE03B
:102C6000C4EBC400184901EB8000807C01281BD113
:102C7000C4EBC40001EB8000407C401CC1B2C4EB3B
:102C8000C400114A02EB800041741E290CDB0421B0
:102C9000C4EBC40002EB800041750021C4EBC4000A
:102CA00002EB8000417406E00021C4EBC400064A38
:102CB00002EB8000417500E000BF00BF601CC4B2A1
:102CC000012CFFF61AAF10BD8006002030B5034678
:102CD0000C461546002207E0184600F008F824F8D4
:102CE00012009B1C501C82B2AA42F5DB30BD01468B
:102CF000088870472DE9F05F80468A461746B8F18C
:102D0000006F02D33348804501D3BDE8F09FFEF742
:102D100063FEA8F1006B4FEA9B25CBF34809C9F588
:102D20000074A74200DC3C464DE04FF0006101EB2F
:102D300085208A142849FFF7C9FF00260BE009EB1C
:102D40000600254931F810004FF6FF71884200D087
:102D500003E0701C86B2A642F1DB00BFA6421BDA7C
:102D60004FF0006101EB8520FEF7CCFD002608E066
:102D70003AF8160006EB0901174A22F81100701CF8
:102D800086B2A642F4DB4FF0006101EB85208A1485
:102D9000114900F023F804E022465146404600F075
:102DA0001DF8A74200D10FE06D1C4FF000090AEB9F
:102DB000440AA044381B87B2B7F5007F02DD4FF408
:102DC000007400E03C46B0E700BFFEF7DBFD00BF4B
:102DD0009BE70000000001089C0600202DE9F0415F
:102DE00005460E461746002407E036F8141028461C
:102DF000FEF7D2FDAD1C601C84B2BC42F5DBBDE821
:102E0000F08110B500F002F810BD00000CB50020F4
:102E1000019000903348006840F4803031490860E8
:102E200000BF3048006800F4003000900198401C5A
:102E30000190009818B90198B0F5A06FF1D1294818
:102E4000006800F4003010B10120009001E0002083
:102E500000900098012843D12348006840F01000FA
:102E6000214908600846006820F003000860084611
:102E7000006840F0020008601A484068194948603C
:102E80000846406848600846406840F480604860F2
:102E90000846406820F47C1048600846406840F4CA
:102EA000E81048600846006840F08070086000BF85
:102EB0000C48006800F000700028F9D0094840680C
:102EC00020F00300074948600846406840F00200CF
:102ED000486000BF0348406800F00C000828F9D1A2
:102EE0000CBD00000010024000200240042808D160
:102EF0004FF0E021096941F004014FF0E022116137
:102F000007E04FF0E021096921F004014FF0E022D1
:102F10001161704710B51348006840F00100114975
:102F2000086008464068104908400E494860084655
:102F300000680E4908400B4908600846006820F404
:102F4000802008600846406820F4FE0048604FF486
:102F50001F008860FFF755FF4FF0006004490860CC
:102F600010BD0000001002400000FFF8FFFFF6FE59
:102F700008ED00E01CB50121194800F0CAF868B35B
:102F8000FFF7B6FD002001901FE09DF80400C0EBA4
:102F9000C000144901EB8000407D00909DF80000C6
:102FA000032804D1012010490880082048809DF89A
:102FB0000000042804D101200B4908800A20488021
:102FC0009DF80400401CC0B201909DF80400012847
:102FD000DBDB0121024800F08DF800BF1CBD0000C2
:102FE0000004004080060020160000207FB5054642
:102FF0000C4601210220FFF7E1FCADF80850ADF8C6
:1030000004400020ADF80600ADF80A000122114688
:103010000D4800F08FF801A90B4800F0EDF81D20D5
:103020008DF8000000208DF8010003208DF80200CB
:1030300001208DF803006846FEF7B0FE012102482A
:1030400000F05BF87FBD0000000400407FB505463E
:103050000C4601210420FFF7B1FCADF80850ADF893
:1030600004400020ADF80600ADF80A000122114628
:103070000D4800F05FF801A90B4800F0BDF81E20D4
:103080008DF8000000208DF8010003208DF802006B
:1030900001208DF803006846FEF780FE01210248FA
:1030A00000F02BF87FBD00000008004010B50121A2
:1030B0000C4800F02EF8A0B101210A4800F01AF8DF
:1030C00009480068401C0849086008480068401C1E
:1030D0000649086006480068401C0549086001F080
:1030E0005FFC10BD000800405C0000206000002074
:1030F00064000020CA430282704721B1028842F076
:103100000102028004E002884FF6FE731A4002803A
:10311000704730B50246002000230024158A05EAD6
:103120000103958905EA010413B10CB1012000E007
:10313000002030BD1AB183890B43838102E083896B
:103140008B4383817047000070B500240022002368
:10315000058C4FF6FE7635400584028C8388048BFF
:103160004FF68F752C40B51E2C400D882C43751ED4
:103170002A400D892A434D882A43144DA8420BD07A
:10318000134DA84208D0134DA84205D0124DA842B5
:1031900002D0124DA84213D14FF6F7752A404D893F
:1031A0002A434FF6FB752A408D882A434FF6FF6568
:1031B0002B404FF6FF552B408D892B43CD892B4358
:1031C00083800483CD888586028470BD002C0140F5
:1031D00000340140004001400044014000480140EB
:1031E0000A460021018B4FF6F77319401143018302
:1031F0007047818670470000002202881D4B98426C
:103200000ED01D4B98420BD0B0F1804F08D01B4B15
:10321000984205D01A4B984202D01A4B984204D1DA
:103220004FF68F731A404B881A43174B984207D0BA
:10323000164B984204D04FF6FF431A40CB881A43EE
:1032400002808B8883850B8803850A4B98420BD0BC
:10325000094B984208D00E4B984205D00D4B98422E
:1032600002D00D4B984201D10B7A03860123838251
:1032700070470000002C0140003401400004004071
:1032800000080040000C0040001000400014004006
:1032900000400140004401400048014010B540F2A8
:1032A00025511D4800F04AF810B31B4800F002F900
:1032B000C4B21A48008800F40040C8B91748008812
:1032C00000F4804060B10A2C03D00020134908802C
:1032D00020E01248008840F400401049088019E0BE
:1032E0000D2C06D10D48008840F480400B49088021
:1032F00010E00A480088C0F30D0009490C54074843
:103300000088401C0549088008460088C72801DD60
:103310000020088010BD000000380140140000208B
:10332000B605002021B1828942F40052828104E076
:1033300082894DF6FF731A408281704770B502464C
:10334000002400230025002040F66A16B14200D177
:1033500000BFC1F3421501F01F03012606FA03F373
:10336000012D02D19689334006E0022D02D1168A42
:10337000334001E0968A33400C12012606FA04F429
:103380001688344013B10CB1012000E0002070BD5C
:10339000F0B50346002400260025002040F66A17F9
:1033A000B94200D100BF1846C1F3421401F01F0614
:1033B000012707FA06F5012C01D10C3004E0022C9C
:1033C00001D1103000E014301AB107682F430760B4
:1033D00002E00768AF430760F0BD00002DE9F04749
:1033E00086B005460E460024A24600BFA14600272F
:1033F000B08900B100BF2F462C8A4CF6FF70044004
:10340000F08804432C82AC894EF6F3100440B08857
:1034100031890843718908430443AC81AC8A4FF673
:10342000FF400440B0890443AC8201A8FFF7F6FADC
:103430001F48874202D1DDF810A001E0DDF80CA0A2
:10344000A88900F4004040B10AEBCA0000EB0A1062
:1034500031684900B0FBF1F807E00AEBCA0000EB65
:103460000A1031688900B0FBF1F86420B8FBF0F075
:1034700004012009642101FB1089A88900F400409F
:1034800040B1322000EBC900B0FBF1F000F00700C2
:10349000044308E0322000EB09106421B0FBF1F096
:1034A00000F00F0004432C8106B0BDE8F087000057
:1034B0000038014001468888C0F308007047490081
:1034C00050EAC12018BF04204A0D18BF40F0010087
:1034D00040F2FF72B2EB515F08BF40F002000128DA
:1034E00008BF052070472DE9F0414F1E00EBC701D2
:1034F0000446D1E9000115461E4637F006020DD0FC
:103500002A46334601F0AEFD7F1E04EBC703D3E924
:10351000002301F0F1FA37F00602F1D1022F25D095
:10352000042F13D0062F18BFBDE8F0812A4633467A
:1035300001F098FDD4E90A2301F0DEFA2A46334669
:1035400001F090FDD4E9082301F0D6FA2A4633466B
:1035500001F088FDD4E9062301F0CEFA2A4633466D
:1035600001F080FDD4E9042301F0C6FA2A4633466F
:1035700001F078FDD4E9022301F0BEFA2A46334671
:1035800001F070FDD4E90023BDE8F04101F0B4BAC8
:10359000002213461046014901F06ABB0000F03FCB
:1035A000012202F0FCBA002213461046114601F037
:1035B0005FBB30380A2801D20120704700207047D5
:1035C00000BF704710B50B48807B90B100240EE01F
:1035D0000120094908607D2000F05AF800200749C1
:1035E000C1F8A4017D2000F053F8601CC4B2FF2C88
:1035F000EEDB10BD9C0E0020A48121420080214200
:1036000010B56FF00400FFF771FC0A4800680A4922
:10361000B0FBF1F0094908700846007800EB400162
:10362000C1EBC0104FF6FF7101EAC00004490880E9
:1036300010BD00005C05002000127A000A00002086
:103640000C0000200146114A12884A434FF0E02343
:103650005A6100229A611A46126942F001021A6107
:1036600000BF4FF0E022106900F001021AB100F42F
:103670008032002AF5D04FF0E022126922F00102D8
:103680004FF0E0231A6100229A6170470C0000207D
:103690000146114A12784A434FF0E0235A61002252
:1036A0009A611A46126942F001021A6100BF4FF096
:1036B000E022106900F001021AB100F48032002A01
:1036C000F5D04FF0E022126922F001024FF0E02322
:1036D0001A6100229A6170470A0000201FB501217B
:1036E0000820FFF77BF90920ADF80C0004208DF8C5
:1036F0000F0003208DF80E0003A91448FEF7ACF963
:1037000001210846FFF76AF900210120FEF784F93C
:103710000120019000208DF8080008208DF8090094
:1037200001208DF80A0001A8FEF7A2F806208DF806
:10373000000002208DF8010001208DF802008DF8B4
:1037400003006846FEF72AFB1FBD0000000C014085
:1037500000BF054A128802F04002002AF9D0C2B226
:10376000014B1B1D1A8070470038014070B506469A
:1037700000250024094800680A21B0FBF1F43C2030
:10378000B4FBF0F5C5EB0510A4EB800423462A46F4
:1037900003A13046FCF756FD70BD00005C00002020
:1037A000253033643A253032640000002DE9F04FB3
:1037B0008DB000200C900B900A900620FEF72EFA98
:1037C000334908800846008801F0F0FF064631487A
:1037D0000168304602F02FF904462D48008801F0B8
:1037E000E5FF06462C480168304602F027F80546FA
:1037F000214601F0C5FE0C90284801680C9801F0A4
:10380000BFFE019001F022FE804600F067FA0646F6
:103810000F462348006801F019FE32463B46CDE9C9
:10382000020101F01FFCCDE906011E48006801F00D
:103830000DFECDE90401DDE9062301F05DF9044642
:103840000D46174801681748006801F0F7FF064663
:1038500001F0FCFD22462B46CDE9080101F008FAF3
:10386000824601F017F90B900B9801F0EFFD064628
:103870004FF066320C4B01F0FFFC044601F00AF9F0
:103880000A900A9801F05AFF80B20DB0BDE8F08F9F
:10389000540500203C050020480500204C05002070
:1038A00044050020400500206612714010B500213B
:1038B0004FF08040FFF79DFC4FF4FA70FFF7E8FEF1
:1038C0000420FEF7ABF9044640F6DC70844201DACE
:1038D000044804800448006881B24FF08040FFF73C
:1038E00088FC10BD5605002024000020F8B50025F6
:1038F000FFF7DCFF4048008840F21631884214DAB6
:103900003D48008801F052FF07463C4800233C4AEE
:1039100019460090384600F08DFC064601F00EFF77
:1039200038490988084485B248E033480088B0F532
:10393000C36F14DA3048008801F038FF0746324878
:103940002E4B324A2E490090384600F073FC064652
:1039500001F0F4FE2B490988084485B22EE0264880
:10396000008840F60E31884214DA2348008801F0BE
:103970001DFF07462648244B264A24490090384616
:1039800000F058FC064601F0D9FE1E49098808449B
:1039900085B213E01848008801F008FF07461E486A
:1039A0001B4B1E4A1B490090384600F043FC06465C
:1039B00001F0C4FE13490988084485B200240020A0
:1039C0000CE0174A411C32F8111022F81010411C6B
:1039D00032F8111021448CB2411CC8B21328F0DB1C
:1039E0000F48C584C08C204484B2142094FBF0F0AE
:1039F00085B22846F8BD0000560500200000C842E8
:103A00000080454404000020000048430000C344F7
:103A10000000964300E030450000D24300A07F45FF
:103A20008E0500202DE9F0470220FEF7F7F88246C8
:103A300001F0C9FA06464FF06632074B01F012FB5F
:103A400004460022054B01F013F9804601F022F8EC
:103A500003490860BDE8F0876626424000FEAF409B
:103A6000000000202DE9F04188B005A8FFF77EFE98
:103A70000020102305AA01460090FEF715FD84489A
:103A8000006801F0E3FC06460022824B01F0AEFA2A
:103A90000BD27F48006801F0D9FC064632460B463F
:103AA0007DA103A8FCF7CEFB0AE07948006801F08D
:103AB000CDFC064632460B4679A103A8FCF7C2FBB3
:103AC0000120102303AA002100903420FEF7ECFC13
:103AD0007548D0F8012075A102A8FCF7B3FB0020BF
:103AE000102302AA014600905820FEF7DDFC0020BA
:103AF00010210B466E4ACDE9001001467020FEF7FA
:103B0000E3F901200F237F22194600900020FEF7E1
:103B100063FA6549D1F80110664A128891420BD1C7
:103B200064490988644A1288881A002801DB014622
:103B300000E041420A2903DD5F4800885D490880B2
:103B40005949D1F801105B4A1288501A002801DB4C
:103B5000014600E04142012904DC5348D0F801004D
:103B60005449088053480088642190FBF1F084B2E6
:103B70005048008890FBF1F201FB12000A2190FBF3
:103B8000F1F085B24B48008890FBF1F201FB120086
:103B90001FFA80F804EB44004006020E01231121B5
:103BA0000020FEF7D7F905EB45004006020E012381
:103BB00011211920FEF7CEF908EB48004006020E4D
:103BC000012311213220FEF7C5F9102002230090B5
:103BD0003A48028818214E20FEF71CFC01201021D3
:103BE0000B46334ACDE9001018215E20FEF76CF930
:103BF0003348006864214843FF2190FBF1F6102010
:103C000003233246302100904E20FEF703FC2D485E
:103C1000007890B101200F2110232B4ACDE900102C
:103C200018217020FEF750F90120102327A230211F
:103C300000906820FEF738FC27E02548007890B116
:103C400001200F211023204ACDE9001018217020F7
:103C5000FEF73AF9012010231EA2302100906820BF
:103C6000FEF722FC11E001200F2110231A4ACDE9B2
:103C7000001018217020FEF727F90120102315A24B
:103C8000302100906820FEF70FFC08B0BDE8F081FD
:103C9000000000200000244025312E326600000084
:103CA00025322E31660000009C0E002025640000A5
:103CB000A604002068040020060000200400002064
:103CC000240000206B040020E20400204F46460040
:103CD0006A040020204F4E00C60400202DE9F04D5C
:103CE000C84A002490B0914205DA21F00043934283
:103CF00001D805D120B110B0BDE8F04DFFF750BCA0
:103D0000B1F5801F1BDA53EA000209D0002911DA4D
:103D10000120FCF7B4FB10B0BDE8F04DFFF743BC49
:103D20000220FCF7ACFBFFF733FC10B081F0004140
:103D3000BDE8F08D6FF03504362201F030FF04EB62
:103D40002152C1F31308B049A2F2FF33414401F4F8
:103D5000801282F07F6103EB225281F04051009289
:103D600041EA08010022A94B01F086FA044608F155
:103D70000200A74EC0F313000D467E44032867D20D
:103D8000D6E90023204601F0CBF81ED10098002888
:103D900002BFD6E9000110B0BDE8F08D01F0FCF8DB
:103DA00007460C469B4A9C4B01F05CF906460D46C3
:103DB0009A4A9B4B3846214601F054F910B03246DE
:103DC0002B46BDE8F04D00F097BE4FF05532954BB5
:103DD0002046294601F046F90022934B01F040FAB3
:103DE00006460F4622462B461046194601F03AF980
:103DF00032463B4601F036F9064600980F46F0B1D0
:103E000001F0CAF880468A46824A834B01F02AF9BB
:103E100032463B4601F024FA22462B4601F02CFAAA
:103E200005460C467D4A7E4B4046514601F01AF944
:103E300010B02A462346BDE8F04D01F01DBA0B46EE
:103E400010B0324620462946BDE8F04D01F014BAC4
:103E500000224FF08043204600F04EFE02460B4603
:103E60002046294600F004FF06460F46009801F060
:103E700093F8CDE9040132463B461046394601F03D
:103E8000F1F80C9069480C9A4044019009910B4656
:103E9000104601F0E7F88246024665488B46C8F1B5
:103EA00051080B4608F5D72803217844FFF71BFB80
:103EB00052465B4601F0D6F80A905E480D91524694
:103EC0005B4604217844FFF70EFB099B0C9A01F036
:103ED000C9F8844601980D9B40EA080860460A9A92
:103EE00000F00AFE83460891B8F1000F4EDD4FF056
:103EF000FF322046294601F052FE22462B4601F0B1
:103F0000B1F8804600988A4660B3DDE90401414A71
:103F1000414B01F0A7F8099100905A46404651469E
:103F2000089B00F0E9FD32463B4601F09BF8099BF7
:103F3000009A00F0E1FD4246534601F091F9224615
:103F40002B4601F099F904460D46DDE90401334A98
:103F5000334B01F087F810B022462B46BDE8F04DF8
:103F600001F08AB95A464046089B00F0C5FD32462A
:103F70003B4601F077F84246534601F071F910B024
:103F800022462B46BDE8F04D01F06AB9009840B3D7
:103F9000DDE904011F4A204B01F064F880468A469F
:103FA0005A4620462946089B01F066F932463B46B0
:103FB00001F058F84246534601F05EF922462B467E
:103FC00001F05AF904460D46DDE90401134A144B89
:103FD00001F048F810B022462B46BDE8F04D01F044
:103FE0004BB90B465A462046294601F045F9324660
:103FF0003B4601F037F810B022462B46BDE8F04DA5
:1040000001F02EB90000F07F645F09000000F03F6E
:1040100072370000763C7935EF39EA3D0000E0FE6A
:10402000422EE63F5555D53F0000E03F86EBF9FFB5
:104030000A360000083600001CB5FDF787FEFFF7C2
:10404000DFFA4FF4A060FDF7E1FE4FF4E13000F03D
:10405000BBFC472144F61F60FEF7C8FFFDF74CFB91
:10406000FDF7E0FAFDF72AFEFDF7D4FF00F07CFC37
:1040700040F2CF2142F20F70FEF7E8FFFEF76AFC34
:10408000FDF7CEFE012040218023574ACDE90010E4
:1040900000210846FDF718FFFEF76CF84FF47A7020
:1040A000FFF7D0FAFFF782FB5049088008460088E6
:1040B0004F490880002006E04D4909884D4A22F802
:1040C0001010411CC8B21428F6DB00203F237F22C9
:1040D00001460090FDF780FF84E0FEF71FFC464894
:1040E00000884FF42F7190FBF1F201FB120050B9E0
:1040F000FFF75CFB3D490880FFF794FC3F480188CF
:104100003FA0FCF793F84148007860B93A4800882E
:104110004FF4C87190FBF1F201FB120018B9FFF7E0
:10412000A1FCFEF727F83A48008880B300F0A6F813
:10413000FFF748FA36484088082810D133480078FD
:1041400068B93448007838B10020324908703249E3
:1041500008603249086002E001202E4908703048AA
:10416000007820B100202E4908702C4908602748AB
:1041700000782C490870002025490880FEF700FAD5
:104180002948006882B229492948FEF7B3FD27482B
:10419000D0F8050000280DDD2448D0F8050040F2D5
:1041A000537148431C490968B1EB401F02D90120F3
:1041B000184908701D48D0F8090000280DDD1B487B
:1041C000D0F8090040F25371484314490968B1EB33
:1041D000401F02D901201249087007480088401C7E
:1041E0000549088079E700006800002004000020ED
:1041F000060000208E050020080000205605002043
:104200004144433A25640D0A000000006C0400207C
:10421000160000206A0400206000002064000020D6
:104220006B0400206D040020580500209C0E002027
:1042300004FC00082DE9FC5F06460F4614461D46A7
:10424000DDF830803946204601F000FC2946019017
:10425000404601F0FBFB83463946304601F0F6FB51
:104260005946009001F0EAFA8246019901F088F976
:104270008146294601F016F9BDE8FC9F6248408856
:10428000062843D161480078072823D005DC48B1CF
:1042900005280FD0062838D114E0082823D00D288F
:1042A00033D129E05A48D0F80100401D5849C1F8DF
:1042B00001002AE05648D0F80500401C5449C1F8D6
:1042C000050022E05248D0F80900401C5049C1F8CE
:1042D00009001AE04E48407B08B9012000E00020A8
:1042E0004B49487311E04A48807B08B9012000E03F
:1042F00000204749887308E04548C07B08B9012081
:1043000000E000204249C87300BF43E03F48007806
:10431000072823D005DC48B105280FD0062838D15E
:1043200014E0082823D00D2833D129E03848D0F8EC
:104330000100401F3649C1F801002AE03448D0F896
:104340000500401E3249C1F8050022E03048D0F88F
:104350000900401E2E49C1F809001AE02C48407B94
:1043600008B9012000E000202949487311E02848DD
:10437000807B08B9012000E000202549887308E00F
:104380002348C07B08B9012000E000202049C87301
:1043900000BF00BF1E48D0F80100B0F5C87F04DDA3
:1043A0004FF4C8701A49C1F801001948D0F801004B
:1043B000962803DA96201649C1F801001448D0F86F
:1043C00005003C2803DD3C201149C1F805001048D8
:1043D000D0F80500002803DA00200D49C1F80500D7
:1043E0000B48D0F809003C2803DD3C200849C1F8FF
:1043F00009000748D0F80900002803DA0020044922
:10440000C1F8090070470000160000206C0400206D
:104410009C0E002010B58AB00446207810234DA2CF
:10442000002100900846FEF73FF84BA00068099075
:104430002078042309AA002100901020FDF7D0FF66
:104440004648D0F8052046A107A8FBF7FBFE2079D7
:10445000102307AA002100905820FEF725F8607865
:10446000102341A2194600900020FEF71DF83FA03E
:10447000006806906078042306AA10210090084680
:10448000FDF7AEFF3548D0F8092035A107A8FBF7A6
:10449000D9FE6079102307AA194600905820FEF72C
:1044A00003F8A078102332A2202100900020FDF70D
:1044B000FBFF30A000680590A078042305AA202106
:1044C00000901020FDF78CFF2448407B30B10A207B
:1044D0008DF810000B208DF8110005E00C208DF8F0
:1044E00010000D208DF81100A079022304AA2021CC
:1044F00000905820FDF774FFE07810231EA23021B1
:1045000000900020FDF7D0FF1CA000680390E07829
:10451000032303AA302100901020FDF761FF0F480C
:10452000807B50B1E0790E211023154ACDE90010AF
:1045300032215820FDF7C8FC09E0E0790E21102354
:10454000104ACDE9001032215820FDF7BDFC0AB019
:1045500010BD0000312E0000000102039C0E00205F
:10456000252D32646D696E00322E000004050203B1
:10457000332E000006070809342E00000E0F10002D
:104580006E0400208A04002010B588B0044620780C
:10459000102332A2002100900846FDF785FF30A0CD
:1045A000006807902078042307AA002100901020BB
:1045B000FDF716FF2B48C07B50B120790E21102348
:1045C000294ACDE9001000215820FDF77DFC09E0C3
:1045D00020790E211023254ACDE900100021582012
:1045E000FDF772FC6078102321A21946009000208C
:1045F000FDF75AFF1FA103C9CDE905016078062325
:1046000005AA102100900846FDF7EAFEA0781023C5
:104610001AA2202100900020FDF746FF18A0006894
:104620000490A078042304AA202100901020FDF714
:10463000D7FEE078102313A2302100900020FDF770
:1046400033FF11A000680390E078022303AA302111
:1046500000901020FDF7C4FE08B010BD352E0000FC
:10466000111213149C0E0020020500201E050020CC
:10467000362E00001718191A13140000372E0000E8
:104680001B1C1D1E382E00001F2000001CB504A19D
:1046900003C9CDE900016846FFF7BCFE1CBD000060
:1046A00001010100010101011CB504A103C9CDE90B
:1046B00000016846FFF7AEFE1CBD000001010100CD
:1046C000010101001CB504A103C9CDE90001684640
:1046D000FFF7A0FE1CBD0000010001010101010166
:1046E0001CB504A103C9CDE900016846FFF792FE9D
:1046F0001CBD000001000101010001011CB504A165
:1047000003C9CDE900016846FFF73EFF1CBD00006C
:10471000010100010100000000B585B000203F2329
:104720007F2201460090FDF757FC2FA000680490FF
:104730000120022304AA002100900846FDF750FE44
:104740000120102329A2002100902020FDF7ACFEBB
:1047500027A0006803900120022303AA00210090F3
:104760003020FDF73DFE23A00068029001200223C7
:1047700002AA102100900020FDF732FE0120102334
:104780001DA2194600902020FDF78EFE1EA0006895
:1047900001900120022301AA202100900020FDF7B2
:1047A0001FFE0120102319A2202100900846FDF7CA
:1047B0007BFE0120102317A2302100900020FDF77E
:1047C00073FE012010232722302100901846FDF7A8
:1047D00095FD0120102310A2302100902020FDF72C
:1047E00063FE05B000BD0000212200003A20000059
:1047F00028290000232400003A20323032302E31A4
:10480000312E303500000000252600003A205631B8
:104810002E320000515100003A20313039313939FF
:1048200036363334000000001CB504A103C9CDE9BD
:1048300000016846FFF7EEFD1CBD0000010100010C
:10484000010101011CB504A103C9CDE900016846BD
:10485000FFF7E0FD1CBD00000101000101010001A6
:104860001CB504A103C9CDE900016846FFF78CFE21
:104870001CBD000001000101010000001CB5012069
:104880000E211023044ACDE9001012217220FDF7F9
:104890001BFB00F055F81CBD6E0400201CB504A1E4
:1048A00003C9CDE900016846FFF76EFE1CBD00009C
:1048B00001010100010000001CB504A103C9CDE9FC
:1048C00000016846FFF7A6FD1CBD000000010101C4
:1048D000010101011CB504A103C9CDE9000168462D
:1048E000FFF798FD1CBD000000010101000101015E
:1048F0001CB504A103C9CDE900016846FFF744FED9
:104900001CBD000000010101010000001CB504A154
:1049100003C9CDE900016846FFF736FE1CBD000063
:10492000000101010000000010B50246012000E076
:1049300050430B1EA1F10104E1B2F9D110BD0000FA
:104940001120084908704FF48C70C1F8010005204F
:10495000C1F805001420C1F80900012048738873CC
:10496000C87370479C0E002010B50A48006882B2D8
:1049700009490A48FEF7AAF907480078112808D023
:10498000FFF7DEFF0348006882B203490348FEF7E1
:10499000B1F910BD580500209C0E002004FC000851
:1049A0000549096888B230B90021044A1170044AE7
:1049B0001160044A11607047200121426A040020FE
:1049C000600000206400002010B586B0044601217C
:1049D00044F20400FEF702F84FF40070ADF8140042
:1049E00003208DF8160018208DF8170005A91C4823
:1049F000FDF732F84FF48060ADF8140004208DF814
:104A0000170005A91648FDF727F825208DF80000A6
:104A100003208DF801008DF8020001208DF80300BD
:104A20006846FDF7BBF901940020ADF80800ADF829
:104A30000A00ADF80C00ADF810000C20ADF80E0027
:104A400001A90848FEF7CAFC012240F22551054899
:104A5000FEF79EFC01210348FEF764FC06B010BD82
:104A6000000801400038014010B500290AD008783C
:104A7000002807D005487844FCF7D6F8002801D074
:104A8000002010BD0248784410BD0000362B000005
:104A90002E2B000021F00042A2F16052B2F5801FDF
:104AA00001F0004328BFD2F17F6C0BD95FEA001CF4
:104AB00043EAC20242EB507018BF704728BF20F093
:104AC00001007047B2F5801FBCBF184670474FEA1F
:104AD000410C1CF5001F02D2084600F076BF70B5ED
:104AE00000F06AFB00000089FFF7F6BF4FF00040BE
:104AF000A0F580007047000010B591EA030F48BF91
:104B000083F0004300F1C083841A71EB030C05D2DB
:104B1000121943EB0C03001B61EB0C01DFF824E1DD
:104B20004FEA1154A4EB135C1EEA430F18BF9EEA30
:104B3000445F73D023EA0E03DCF1200E21EA045116
:104B400043F4801332D322FA0CFE10EB0E0023FA4A
:104B50000CFE41EB0E01CCF1200E03FA0EFE10EB21
:104B60000E0051F10001B1F5801FCCF1200E32D2C0
:104B700001EB045112FA0EF2BDE8104058BF704725
:104B8000401C38BF5FEA420218BF7047002814BFBC
:104B900020F0010041F100014FEA410313F5001F2D
:104BA00038BF7047A1F1C04100F054BB012A43EB6C
:104BB0000302ACF1200CDCF11F0E32BF4FF0000EEF
:104BC00023FA0CF310EB030041EB0451B4EB115F3B
:104BD000D0D0A1EB045101F5801149085FEA300003
:104BE00001EB04510ED350F1000038BF12FA0EFE53
:104BF00008D1BDE81040C9E7401C38BF5FEA420257
:104C0000CAD1C3E7BDE810404FEA410313F5001FC6
:104C100038BF7047A1F1C04100F01CBB9EEA445F61
:104C200008D011EA5E0FBDE8104004BF01F000415A
:104C300000207047BDE8104070B500F0BDFA00BF1D
:104C400064FBBE3E0000E0FF02494FF0000000F0B0
:104C500074BF00BF0000F87F491058BFC1F1404148
:104C60005B1058BFC3F140438B42EFF300807047A5
:104C70002DE9C04130B4DFF8A0C23CEA111418BFDE
:104C80003CEA131400F0EC8081EA03051CEA1114DD
:104C900044EAD57418BF1CEA131500F0C780A4EBD2
:104CA00005044FF0004545EAC12145EAC32341EA26
:104CB000505143EA525304F17F74994204F5003491
:104CC0004FEAC0204FEAC22208BF904200F09C8009
:104CD0004FEA13650FF24016765D4FEA134506FB67
:104CE00005F7C7F1807706FB07F74FEAD737A7FB31
:104CF00003687642C8F58038A7FB06CE38BFA8F116
:104D0000010807FB08E64FF0000EA6FB028CE6FB4D
:104D100003CEDCF1000CCEF1004E38BFAEF1010E37
:104D2000A6FB0C584FF000074FF00005E6FB0E877E
:104D3000A1FB08C6A0FB07CE16EB0E0645F1000549
:104D4000E1FB076515F1E04E7EBFA4F580345FEA14
:104D500046066D4116F1800745F100054FEA172719
:104D60004FEA066647EA0567A6F1DE46B6F1805FC0
:104D70004FEA15251FD9384624F0010C05EBC47104
:104D8000BCF1FE6F01EB0C1102D8F0BCBDE8008154
:104D900024425CBF01F5801E9EEAC47F02D4F0BCB1
:104DA000BDE80081244238D4F0BCA1F1C041BDE887
:104DB000004100F04FBA4FEAD22242EA43524FEA92
:104DC000D323A7FB02864FEAD02040EA415007FBDD
:104DD00003661EEA0E0F4FEAD12105FB026658BF9B
:104DE000A6EB0056B6EB00564FEA520E4EEAC37ED3
:104DF00018EB0E0E56EB530EBDD518EB02085E41B4
:104E00007F1C55F10005B6E74FF480154FF0000701
:104E10004FF000064FF00008ADE7F0BC4FF0000087
:104E200001F1C04101F00041BDE8008111EA0C1F11
:104E30000CEA131500D00CE013EA0C1F00F02580DB
:104E40004FF00000F0BC81EA030101F00041BDE831
:104E50000081F0BCBDE8004181EA030100F0FAB92D
:104E6000F0BCBDE8004170B500F0A6F9097EFC3E3B
:104E700000F007B881EA03014FF0000001F00041A3
:104E8000704781EA030100F0E5B9F0BCBDE80041DC
:104E90004FF0000021497047FFFDFBF9F7F5F4F2F0
:104EA000F0EEEDEBE9E8E6E4E3E1E0DEDDDBDAD8C5
:104EB000D7D5D4D3D1D0CFCDCCCBCAC8C7C6C5C423
:104EC000C2C1C0BFBEBDBCBBBAB9B8B7B6B5B4B33A
:104ED000B2B1B0AFAEADACABAAA9A8A8A7A6A5A425
:104EE000A3A3A2A1A09F9F9E9D9C9C9B9A999998E9
:104EF0009797969595949393929191908F8F8E8E8C
:104F00008D8C8C8B8B8A8989888887878685858418
:104F100084838382828181800000FF070000F87F04
:104F200051EA030C17D41CF5801F58BFBCF5801F35
:104F300000F10680994218BF704708BF9042704741
:104F400007D711F5801F58BF13F5801F19D4994258
:104F50007047894270471CF5801F08D5BCF5801F3B
:104F6000F7D58B4218BF704708BF824270474FF495
:104F7000001C1CEB410F38BF1CEB430F01D28B42CE
:104F8000704770B500F018F9922449004FF00051B5
:104F90004FF08053FFF760BE10F0004248BF404220
:104FA000B0FA80F310FA03F10AD0C3F11D0303F540
:104FB00080634FEA415002EB035202EBD12170476C
:104FC0004FF000007047B0FA80F310FA03F10AD0F6
:104FD000C3F11D0303F580634FEA41504FEA0352CA
:104FE00002EBD12170474FF00000704751EA030CEB
:104FF00017D41CF5801F58BFBCF5801F00F1068038
:10500000994218BF704708BF9042704707D711F503
:10501000801F58BF13F5801F19D4994270478942E9
:1050200070471CF5801F08D5BCF5801FF7D58B4253
:1050300018BF704708BF824270474FF4001C1CEB3A
:10504000410F38BF1CEB430F01D28B42704770B544
:1050500000F0B2F8922449004FF000514FF0805315
:10506000FFF7FABDDFF848C170B51CEA111E1EBF7C
:105070001CEA13159EEA0C0F95EA0C0F00F06F80E6
:1050800081EA030423EA4C134EEAD47E21EA4C1150
:1050900041F4801143F48013AE44A1FB024CA0FB09
:1050A0000365AEF17F7E361955EB0C05A1FB034C71
:1050B0004CF10003A0FB021C16EB0C06654153F1FA
:1050C0000003094218BF46F0010613F4007F0BD11C
:1050D0004FEA03314FEA0530340341EA155140EA03
:1050E00016506FF003020AE04FEAC3214FEAC520D1
:1050F000F40241EA555140EA56506FF0020202EBC9
:105100002E4201EB025585EACE710AD05FEA440CCB
:1051100018BF24F0004450F1000041F1000120EAE2
:10512000D47040F2FE7C624500D270BDA84214BF2C
:105130004FF080444FF04044002E08BF0024BEF1E1
:10514000806FA8BFA1F1C041BDE8704080F28280AD
:105150004FF0000001F1C04101F0004170479EEAAC
:105160000C0F0CEA131518BF95EA0C0F06D04FF080
:10517000000081EA030E0EF0004170BD00F01CF843
:105180008900013E00F007B800F009B84FEA430C6F
:105190005FEA5C5C08D081EA030100F05BB84FEA8B
:1051A000410C5FEA5C5CF6D14FF0000001497047AA
:1051B0000000FF070000F87F0EF1020E2EF0030E34
:1051C0005EF8046B364205D4012A43EB030515F55E
:1051D000001F12D8012841EB010C1CF5001F0CD850
:1051E0000ED14FEAD17C15F5001F0CEB4C0C0CF1E5
:1051F000020C08BF4CEBD37C04E04FF0080C01E03C
:105200004FEAD37C0CEB4C0526FA05F606F00706B0
:10521000B6F1040C06D20EEB860CBDE870404CF0E3
:10522000010C6047DFE80CF0090B02024FF000416F
:105230004FF00000A1F5002170BD1946104601286D
:1052400051EB010418BFD4F5001484BF002001F015
:10525000004170BD0808A0F500114FEA3101704708
:1052600091EA030F10B581F000413FF54DAC83F09A
:10527000004300F009B8000010B591EA030F48BFE1
:1052800083F000433FF540AC841A71EB030C07D266
:1052900012198CF0004C43EB0C03001B61EB0C016A
:1052A000DFF8A4E14FEA1154A4EB135C1EEA430FAC
:1052B00018BF9EEA445F00F0B08023EA6E035242BA
:1052C00021EA0451C3EB6E0338BF5B1EDCF1200EF4
:1052D00025D322FA0CFE10EB0E0043FA0CFE41EB34
:1052E0000E01CCF1200E03FA0EFE10EB0E0051F170
:1052F0000001CCF1200E29D412FA0EF201EB045178
:10530000BDE8104058BF7047401C1CBFB2F1004FB1
:10531000704700280CBF491C20F00100704712EBB9
:10532000020E43EB030218BF4FF0010E4EEA420299
:10533000ACF1200CDCF11E0E54D943FA0CFE10EB3C
:105340000E0051F1FF31CCF11E0ED5D50EF1010E3C
:1053500012FA0EFE404141EB010101EB445C5FEAB1
:105360005C5C10D910EBDE7001EB045138BFBEF16C
:10537000004FBDE8104018BF704700280CBF491C03
:1053800020F00100704730D24FEAD42C11F5001103
:1053900024F400641BD0B1FA81F20B3AA41AA41EC3
:1053A000D2F12003914030FA03F31943904001EB0E
:1053B000CC71002C01EB0451BDE81040A8BF704730
:1053C00001F1C0414FF0000001F000417047B0FA18
:1053D00080F310FA03F100D110BDE41A173C480520
:1053E000C90AE4E701EB045110BD491001EB045177
:1053F000BDE810404FEA300002E04FF00001704776
:105400004A0008BF0042F8D0B2F5001F28BF70471D
:1054100001F000414FF0000070479EEA445F07D062
:1054200011EA5E0FBDE8104004BF00210020704764
:10543000BDE8104070B5FFF7BFFE00BF40DFF63E8D
:1054400083F00041104670470000E0FF43004FEA40
:10545000D30C4FEA3C0C43401FBF40070CF1605196
:1054600013F0FE4F70471CF0006F03D100200CF0CA
:10547000004170470CF0004343EA507010B540EA19
:10548000CC0000F05CFA00BF000000924FEA00017F
:10549000FFF7E0BE4FF000414FF00000A1F5002102
:1054A0007047000090EA010F48BF81F0004100F111
:1054B000D482421A3CBF801A89184FEAD0524FF06A
:1054C0007F4C1CEA410FA2EBD15318BF9CEA026F3C
:1054D00000F03B804FF0004C4CEA00204CEA0121E8
:1054E00021FA03FC10EB0C0C1ED202F1FF325FEA32
:1054F0001C2040EBC25038BF70471CF07F0F4FEAB2
:10550000400C18BFBCF17F4F38BF7047C3F1200378
:10551000994008BF20F00100BCF17F4F38BF7047B1
:10552000A0F1C04000F051BA4FEA3C00000A40EB45
:10553000C25028BF1CF0FF0F4FEA400CE6D018BF46
:10554000BCF17F4F38BF7047EAE79CEA026F05D095
:1055500010EA5C0F08BF00F00040704710B500F083
:10556000EEF900BF64FBBE3E401058BFC0F14040A2
:10557000491058BFC1F140418142EFF300807047AC
:105580004FF47F0C1CEAD0121EBF1CEAD11392EA22
:105590000C0F93EA0C0F00F0858090EA010F48BFD2
:1055A00042F4807240F4000C41F400002CF07F4182
:1055B00020F07F4000B58142A2EB03020FF2081CED
:1055C000ACEB504EC0F100009EF800E04FEA4E0EEA
:1055D00000FB0EFC38BF49004FEA2C1C02F5FA0212
:1055E0000CFB0EF34FEACE1E4FEA112C4FEAC121FD
:1055F0000EEB635E42EB22420EFB0CFC4FEA1C53A7
:1056000000FB03114FEA112C4FEA01310EFB0CFC99
:105610004FEADC4C00FB0C11C14228BF09184CEBCF
:1056200003335DF804EB10EB410143EBC250B2F5DC
:105630007C0F38BF704729D512F0F00F1CBF00F166
:10564000C04000F0004070470081828384858687D7
:1056500088898B8C8D8E8F919293959697999A9C31
:105660009D9FA0A2A3A5A7A8AAACAEB0B2B3B5B7A0
:10567000B9BCBEC0C2C5C7C9CCCED1D4D7D9DCDF76
:10568000E2E6E9ECF0F3F7FAFE0000004FEA400C26
:105690000CF1807CBCF17E4F28BF7047B0F1C04058
:1056A00000F093B990EA010F0CEAD11348BF42F41D
:1056B0008072624538BF634507D213F47F0F16D05E
:1056C00080EA010000F00040704710B500F037F9A3
:1056D000097EFC3E00F005B880EA010000F00040C1
:1056E000704780EA010000F0004000F06EB912F44B
:1056F0007F0F04BF0248704780EA010000F065B9DF
:105700000000C07F41000B0ED3F19E0208D950F477
:1057100000034FEA032323FA02F048BF40427047D8
:1057200010B500F00CF900BF4992248000207047AA
:105730006FF0004282EA200070470000C10DD1F1F5
:105740009E0206DB4FEA002343F0004323FA02F0F7
:105750007047004207D54FEA4001B1F1FE4F02D237
:105760004FF00000704710B500F0E9F8499224802E
:10577000002070476FEA20007047000010F00041E1
:1057800048BF4042B0FA80F310FA03F2C3F19D0320
:105790000BD051EAC35101EB1220530638BF7047BA
:1057A00000F1010008BF20F001007047B0FA80F35B
:1057B00010FA03F2C3F19D030AD0D90501EB1220C0
:1057C000530638BF704700F1010008BF20F0010008
:1057D0007047000050EA010C00F113801CF5000F27
:1057E00058BFBCF5000F01D48842704707D710F5A9
:1057F000000F58BF11F5000F15D488427047894239
:1058000070471CF5000F04D5BCF5000FF7D5814299
:1058100070474FF0807C1CEB400F38BF1CEB410FF2
:1058200001D28142704710B500F089F892244900F6
:105830004FF000504FF08051FFF796BE4FF47F0CB1
:105840001CEAD0121EBF1CEAD11392EA0C0F93EA95
:105850000C0F00F0478090EA010F48BF42F48072BD
:105860004FF0004C4CEA00204CEA012102EB03020D
:10587000A0FB0113A2F50002002918BF43F00103A9
:105880005B0028BF4FEA330342EB22425FEA132C4E
:105890004CEBC2502EBFBCEB436FB2F57C0F704790
:1058A0004FEA036CBCF1004F08BF20F00100B2F5D5
:1058B0007C0F38BF70470BD582F0FF0212F5803F96
:1058C000C8BF704700F1C040D8BF00F0004070472B
:1058D00000F5000C5FEA4C0C48BF7047B0F1C040C7
:1058E00000F073B890EA010F0CEAD11348BF42F4FC
:1058F0008072624538BF634504D280EA010000F03F
:105900000040704710B500F01AF800BF8900013E52
:1059100000F007B800F009B85FEA410C5FEA1C6CC0
:1059200008D080EA010000F050B85FEA400C5FEA5E
:105930001C6CF6D14FF00040A0F5800070470EF1CE
:10594000020E2EF0030E5EF8044B244204D44FEAFC
:105950004102B2F17F4F11D84FEA4003B3F17F4FBC
:105960000CD80ED14FEAD07CB2F17F4F0CEB4C0C2F
:105970000CF1020C08BF4CEBD17C04E04FF0080C9A
:1059800001E04FEAD17C0CEB4C0324FA03F404F061
:105990000704B4F1040C06D20EEB840CBDE81040F1
:1059A0004CF0010C6047DFE80CF0070802024FF0F2
:1059B0000040A0F5800010BD0846420018BFD2F19B
:1059C000807288BF00F0004010BDFF2141EAD05036
:1059D000C005704751EA000C00F113801CF5000F60
:1059E00058BFBCF5000F01D48142704707D711F5AD
:1059F000000F58BF10F5000F15D48142704789423F
:105A000070471CF5000F04D5BCF5000FF7D5884290
:105A100070474FF0807C1CEB410F38BF1CEB400FF0
:105A200001D28842704780EA010081EA000180EAE1
:105A30000100FFF7F8BE80F0004090EA010F7FF50B
:105A400038AD81F0004100F008B8000090EA010F85
:105A500048BF81F000413FF52CAD421A04D882F0D6
:105A60000042A0EB020011444FEAD0524FF07F4CAD
:105A70001CEA410FA2EBD15318BF9CEA026F4AD037
:105A80004FF0004C4CEA00204CEA012121FA03FCC3
:105A9000B0EB0C0C0FD412F0FE0F36D05FEA4C00C6
:105AA0001DD5001240EBC25038BF70471CF03F0FAD
:105AB00018BF70470BE0A2F101025FEA1C2040EB27
:105AC000C25038BF70471CF07F0F18BF7047C3F13A
:105AD0002003994014BF401E20F001007047800849
:105AE0004FEA122308BF7047B0FA80FCA2EB0C0209
:105AF000CCF1280C60FA0CF093EA122F04BF00EBF3
:105B0000C25070474FEAC3707047130A5FEADC1057
:105B100008BF7047F6E79CEA026F04D010EA5C0FFA
:105B200008BF0020704710B5FFF709FF40DFF63EC1
:105B300081F000407047FAF7DABD0CF00F03092B33
:105B400008BF082000F059800A2B0BD0082B18BF83
:105B5000704708BF1CF0400F0AD04FF000004FF014
:105B6000000170471CF0400F18BF4FF00040704715
:105B70001CF0100F08D020F0704300F07F4242EA82
:105B8000D3014FEA4370704700F0604021F07F423C
:105B900042EA000201F07F4040EA727070474FF025
:105BA000FF0C4CF4E06C1CEA11531CBF9CEA030C84
:105BB0009445C2BFDA4201EB02517047002B0DD071
:105BC000BCF1000F0FD0002A01F00041A4BF41F04A
:105BD000E04141F07F614FF00000704701F000416B
:105BE0004FF00000704750EA01334FF09B0C18BF94
:105BF0004CF0806C7FF428A870471CF4801F11D0F3
:105C00001CF4E02F03D06FEACC31490070474FF00D
:105C10004050EFF3008222F0704242EA000282F329
:105C2000008870474FF000007047000048000000F7
:105C3000000C01400200000008000000000000000D
:105C40000000000000000000000000003F400000D5
:105C50000000000000003000400030004000000064
:105C600009000BC03D000BC03D00090018C02440D6
:105C70007FE0224031800000180024C01B000D800E
:105C80003240018003801C4027401C8007400040B8
:105C90001000600000000000000000000000000094
:105CA00000001F80204040200000402020401F8036
:105CB00000000000090006001F8006000900000027
:105CC000040004003F800400040000000010006095
:105CD00000000000000000000400040004000400B4
:105CE0000400000000000040000000000000000070
:105CF000002001C006003800400000001F80204046
:105D0000204020401F800000000010403FC00040A5
:105D10000000000018C0214022402440184000002C
:105D200010802040244024401B80000002000D0011
:105D300011003FC0014000003C802440244024402A
:105D4000238000001F802440244034400380000052
:105D50003000200027C03800200000001B802440B5
:105D6000244024401B8000001C0022C0224022400E
:105D70001F8000000000000008400000000000003C
:105D800000000000046000000000000000000400AB
:105D90000A001100208040400900090009000900A4
:105DA0000900000000004040208011000A000400AB
:105DB0001800200023402400180000001F8020400D
:105DC000274029401F400000004007C039000F0055
:105DD00001C0004020403FC0244024401B80000000
:105DE0001F802040204020403080000020403FC0E5
:105DF000204020401F80000020403FC024402E4013
:105E000030C0000020403FC024402E003000000081
:105E10000F001080204022403380020020403FC00D
:105E2000040004003FC02040204020403FC02040EC
:105E3000204000000060202020203FC020002000E3
:105E400020403FC024400B0030C0204020403FC0D5
:105E500020400040004000C03FC03C0003C03C0068
:105E60003FC0000020403FC00C4023003FC0200046
:105E70001F802040204020401F80000020403FC065
:105E800024402400180000001F802140214020E011
:105E90001FA0000020403FC02440260019C0004041
:105EA00018C02440244022403180000030002040AF
:105EB0003FC020403000000020003F8000400040F4
:105EC0003F80200020003E0001C007003800200075
:105ED000380007C03C0007C038000000204039C02F
:105EE000060039C0204000002000384007C038407C
:105EF00020000000304021C02640384020C0000073
:105F0000000000007FE04020402000000000700002
:105F10000C000380004000000000402040207FE093
:105F200000000000000020004000200000000000F1
:105F30000010001000100010001000100000000001
:105F40004000000000000000000002800540054005
:105F500003C0004020003FC0044004400380000014
:105F6000000003800440044006400000000003805D
:105F7000044024403FC0004000000380054005402D
:105F800003400000000004401FC0244024402000C3
:105F9000000002E0055005500650042020403FC09C
:105FA0000440040003C000400000044027C000403B
:105FB0000000000000100010041027E000000000A6
:105FC00020403FC00140070004C004402040204062
:105FD0003FC000400040000007C0040007C00400AC
:105FE00003C00000044007C00440040003C0004098
:105FF000000003800440044003800000041007F008
:10600000045004400380000000000380044004505A
:1060100007F00010044007C0024004000400000024
:10602000000006400540054004C0000000000400D8
:106030001F8004400040000004000780004004402E
:1060400007C000400400070004C0018006000400EF
:10605000060001C0070001C006000000044006C0A1
:10606000010006C0044000000410071004E0018095
:10607000060004000000044005C006400440000083
:106080000000000004007BE0402000000000000051
:106090000000FFF000000000000040207BE0040052
:1060A0000000000040008000400020002000400070
:1060B00000000000000000000000000000000000E0
:1060C0000000000000001FCC000C000000000000D9
:1060D0000000080030006000080030006000000090
:1060E000022003FC1E20022003FC1E2002200000D0
:1060F00000000E1811043FFF10840C78000000000F
:106100000F0010840F3800C0077818840078000052
:1061100000780F8410C411240E9800E40084000855
:10612000080068007000000000000000000000008F
:1061300000000000000007E01818200440020000E2
:10614000000040022004181807E0000000000000D2
:106150000240024001800FF0018002400240000036
:106160000080008000800FF8008000800080000028
:106170000001000D000E0000000000000000000003
:10618000000000800080008000800080008000808F
:106190000000000C000C00000000000000000000E7
:1061A00000000006001800600180060018002000B2
:1061B000000007F0080810041004080807F00000A9
:1061C0000000080408041FFC000400040000000094
:1061D00000000E0C10141024104411840E0C00004A
:1061E00000000C1810041104110412880C70000037
:1061F000000000E00320042408241FFC0024000009
:1062000000001F9810841104110410881070000001
:10621000000007F0088811041104188800700000BD
:1062200000001C00100010FC13001C0010000000F7
:1062300000000E3811441084108411440E38000000
:1062400000000700088C10441044088807F0000084
:10625000000000000000030C030C00000000000020
:106260000000000000010106000000000000000026
:106270000000008001400220041008081004000003
:106280000220022002200220022002200220000020
:1062900000001004080804100220014000800000E3
:1062A00000000E001200100C106C10800F00000097
:1062B00003E00C1813E4142417C4082807D00000C6
:1062C0000004003C03C41C40074000E4001C000420
:1062D00010041FFC1104110411040E88007000004A
:1062E00003E00C1810041004100410081C10000027
:1062F00010041FFC100410041004080807F000002C
:1063000010041FFC1104110417C410040818000025
:1063100010041FFC1104110017C010000800000039
:1063200003E00C181004100410441C780040000016
:1063300010041FFC10840080008010841FFC1004D7
:106340000000100410041FFC1004100400000000E2
:1063500000030001100110011FFE100010000000DA
:1063600010041FFC110403801464181C10040000A6
:1063700010041FFC1004000400040004000C0000C2
:1063800010041FFC1F0000FC1F001FFC1004000075
:1063900010041FFC0C04030000E010181FFC100088
:1063A00007F00808100410041004080807F00000A3
:1063B00010041FFC10841080108010800F0000005B
:1063C00007F0081810241024101C080A07F2000017
:1063D00010041FFC1104110011C011300E0C000438
:1063E00000000E1C11041084108410441C3800009E
:1063F0001800100010041FFC10041000180000000A
:1064000010001FF810040004000410041FF810000E
:1064100010001E0011E0001C007013801C00100012
:106420001FC0103C00E01F0000E0103C1FC0000037
:106430001004180C163401C001C01634180C1004D6
:1064400010001C00130400FC13041C0010000000CA
:106450000804101C1064108413041C04101800009D
:106460000000000000007FFE4002400240020000E9
:10647000000030000C0003800060001C00030000DE
:1064800000004002400240027FFE000000000000C9
:1064900000000000200040004000400020000000FC
:1064A00000010001000100010001000100010001E4
:1064B000000040004000200000000000000000003C
:1064C00000000098012401440144014400FC000440
:1064D00010001FFC00880104010400880070000007
:1064E000000000700088010401040104008800001D
:1064F0000000007000880104010411081FFC000462
:10650000000000F8014401440144014400C80000B7
:106510000000010401040FFC110411041100180013
:10652000000000D601290129012901C90106000046
:1065300010041FFC008401000100010400FC0004A1
:1065400000000104190419FC00040004000000000C
:106550000000000300010101190119FE0000000004
:1065600010041FFC0024004001B4010C01040000D1
:106570000000100410041FFC0004000400000000D0
:10658000010401FC0104010001FC0104010000FC04
:10659000010401FC008401000100010400FC00046E
:1065A000000000F8010401040104010400F80000E7
:1065B000010101FF00850104010400880070000052
:1065C00000000070008801040104010501FF0001C2
:1065D0000104010401FC00840104010001800000A9
:1065E000000000CC012401240124012401980000B2
:1065F00000000100010007F8010401040000000090
:10660000010001F8000400040004010801FC00047A
:10661000010001800170000C001001600180010088
:1066200001F0010C003001C00030010C01F001004C
:1066300000000104018C00740170018C0104000051
:10664000010101810171000E00180160018001004B
:1066500000000184010C013401440184010C00009C
:10666000000000000000000001003EFC400240026B
:106670000000000000000000FFFF0000000000001C
:106680000000400240023EFC01000000000000004B
:1066900000006000800080004000400020002000DA
:1066A00000000000000000000000000000000000EA
:1066B00000000000000000000000000000000000DA
:1066C00000000000000000000000000000000000CA
:1066D000000000000FFF0000000000FFFFF00000BE
:1066E0000003FFFFFC00000007E0007E0000001F29
:1066F00000000F8000001800000180000030000042
:1067000000C00000600000006000004000000020A9
:1067100000004000000020000040000000200000B9
:106720004000000020000060000000600000200029
:106730000000C0000038000001C000001E0000077B
:106740008000000FE0007E00000003FFFFFC00005F
:106750000000FFFFF0000000000FFF00000000003D
:106760000000000000000000000000000000000029
:106770000000000000000000000000000000000019
:106780000000000000000000000000000000000009
:1067900000000000000000000000000000000000F9
:1067A00000000000000000000000000000000008E1
:1067B0000000002000000800000020000008000089
:1067C0000020000008000000200000080000006019
:1067D00000001FFFFFFFE000003FFFFFFFE00000A1
:1067E0007FFFFFFFE00000000000006000000000ED
:1067F0000000200000000000002000000000000059
:106800002000000000000020000000000000200028
:106810000000000000000000000000000000000078
:106820000000000000000000000000000000000068
:106830000000000000000000000000000000000058
:106840000000000000000000000000000000000048
:106850000000000000000000000000000001E00057
:106860000003E00003E000000FF0000EE000001F56
:10687000F0001CE000001FF00030E000003060007D
:1068800060E00000200000C0E0000060000180E047
:10689000000040000300E0000040000600E00000AF
:1068A00040000C00E0000040001800E00000400044
:1068B0003000E000006000E000E000003001C000B7
:1068C000E000003C0F8001E000001FFF0003E0003B
:1068D000000FFE000FE0000003F0001C00000000AD
:1068E00000000000000000000000000000000000A8
:1068F0000000000000000000000000000000000098
:106900000000000000000000000000000000000087
:10691000000000000000000000000000001E000059
:10692000000780003F0000000FC0003F8000001102
:10693000C0001CC00000200000004000002000003B
:1069400000200000400000002000004000800020E7
:106950000000400080002000004000800020000077
:10696000400080002000006001C0002000006001A5
:10697000400040000030036000C000003C0E3001C9
:10698000C000001FFC3C078000000FF81FFF000044
:106990000003E00FFE000000000001F8000000000E
:1069A00000000000000000000000000000000000E7
:1069B00000000000000000000000000000000000D7
:1069C00000000000000000000000000000000000C7
:1069D00000000000000180000000000003800000B3
:1069E0000000000E80000000000038800000000061
:1069F0000060800000000001C0800000000007006F
:106A000080000000000C00800000000030008020AA
:106A10000000006000802000000180008020000055
:106A2000060000802000000C0000806000003FFF96
:106A3000FFFFE000007FFFFFFFE000007FFFFFFFA0
:106A4000E0000000000080600000000000802000E6
:106A500000000000802000000000008020000000F6
:106A60000000802000000000000000000000000086
:106A70000000000000000000000000000000000016
:106A80000000000000000000000000000000000006
:106A9000000000000000000000000000003C0000BA
:106AA00000003FE07F0000007FFFE07F800000707B
:106AB00000C03880000070018000400000700300BA
:106AC000004000007003000020000070060000205D
:106AD000000070060000200000700600002000008A
:106AE0007006000020000070060000200000700703
:106AF000000060000070030000C000007003C001CF
:106B0000C000007001F00F8000007000FFFF000067
:106B10000070007FFC00000000000FF0000000008B
:106B20000000000000000000000000000000000065
:106B30000000000000000000000000000000000055
:106B40000000000000000000000000000000000045
:106B50000000000007FF80000000007FFFF8000039
:106B60000001FFFFFE00000007E0703F0000000E84
:106B700000E00780000018018001C0000010030041
:106B800000C000002003000060000020060000207C
:106B90000000400600002000004006000020000029
:106BA00040060000200000400600002000004007D2
:106BB00000006000007E0300004000003F03C000B2
:106BC000C000001F01F0078000000E00FFFF000062
:106BD0000000007FFC00000000000FF0000000003B
:106BE00000000000000000000000000000000000A5
:106BF0000000000000000000000000000000000095
:106C00000000000000000000000000000000000084
:106C100000000000000000000000038000000000F1
:106C2000007F0000000000007C00000000000078F1
:106C30000000000000007000000000000070000074
:106C4000000000007000001FC00000700001FFE0A5
:106C5000000070000FFFE0000070003FFFC0000068
:106C60007001F8000000007007C000000000701EF6
:106C700000000000007078000000000071C00000FB
:106C8000000000770000000000007E00000000000F
:106C9000007800000000000060000000000000001C
:106CA00000000000000000000000000000000000E4
:106CB00000000000000000000000000000000000D4
:106CC00000000000000000000000000000000000C4
:106CD000000000000001F800000003F007FE0000C3
:106CE000000FFC0FFF0000001FFE1E038000001CB1
:106CF0003F3801C00000300F7000C000002007E0E6
:106D0000004000006003C0002000004003C00020DD
:106D100000004001C0002000004001E00020000011
:106D20004000F0002000004000F000200000600162
:106D3000F80060000020013C0040000030033E00ED
:106D4000C000001C0E1F838000001FFC0FFF00000E
:106D5000000FF807FE00000003E001F8000000004B
:106D60000000000000000000000000000000000023
:106D70000000000000000000000000000000000013
:106D80000000000000000000000000000000000003
:106D900000000000FF000000000003FFC000000032
:106DA000000FFFF0070000001E01F00FC0000038C8
:106DB00000780FC0000030001807E0000060001CE1
:106DC0000060000040000C0020000040000C00208B
:106DD000000040000C0020000040000C00200000DB
:106DE00040000C0040000040001800C000002000DF
:106DF0003801800000300030038000001800E01FE0
:106E00000000000F0183FC00000007FFFFF00000FE
:106E10000001FFFFC0000000003FFC000000000078
:106E20000000000000000000000000000000000062
:106E30000000000000000000000000000000000052
:106E40000000000088104FE000109FD09510D51072
:106E5000BFD0B510D5501FD0001000000080010039
:106E600006001FFFE0080810082008C00B00FFFF05
:106E70000B0008C0082008100808000000003FFCB4
:106E80002488248824883FFC00007FFF44824484B7
:106E900047E0449844847C82008F000000003FFC5F
:106EA0002108210821083FFC000008000880086034
:106EB00008020801FFFE08000800000000001FFF94
:106EC0008000600000000FF84888488848884FF824
:106ED0004000400240017FFE000000000081008170
:106EE000088288826884088808B00FC008B00888C3
:106EF0002884C8820882008100810000082008C020
:106F00000B00FFFF090008C100067FF840004000A9
:106F100040007FFC00020002001E0000000420046C
:106F2000200420042004200420043FFC200420042A
:106F3000200420042004200400040000008001003C
:106F400006001FFFE00002000C00F0001FFF111000
:106F5000111011101110101010000000082008C0AE
:106F60000B00FFFF0900289127D2F5542558257002
:106F70002558F55427D2201100010000080008040C
:106F80000906090409FC0908090808080800FFC0E7
:106F90000830080888046802081F0000082008C09C
:106FA0000B00FFFF090008C8043044C0440244013C
:106FB00047FE440044804460041800000020402044
:106FC00030FE0700020004001FFFF2441244924406
:106FD0007FFC12441244124410040000400047C2D7
:106FE000444144427C7C000201E279224922492248
:106FF0004FFE49224922792A01E7000000000801DA
:107000000802080408180860FF8008000804080245
:10701000080108020FFC00000000000000041FC669
:107020001084FFF810881F9C0108090832A8EAA8FC
:1070300025FF2AA832A821080108000000003FF01F
:10704000202020203FF0000000083FC8204868486A
:10705000A648204A21493F42007C0000011001104F
:10706000792F492949494949798F07000180794F8A
:107070004D494B294929791F0110000002004200A7
:1070800033FE000400084100493F49224F22792283
:10709000492249224F3F410001000000200020000A
:1070A000249F249224922492A49264922492249263
:1070B00024922492249F200020000000020002005D
:1070C000420033FC00090211050279C24134410833
:1070D0004114796205820401040100000002E80203
:1070E000A802ABFEAAAAEAAAAAAABEAAAAAAEAAAC1
:1070F000AAAAABFEA802E8020002000000000000FD
:107100000FF00820082008200820FFFF0820082092
:10711000082008200FF0000000000000202120219E
:10712000202223E2F224222822302FE022302228BB
:10713000F22423E2202220212021000000800700E9
:107140000000FFFF08000408103011C11E22F0C427
:10715000101817E0101810461181000004010809EA
:107160001009EF922AB22AEA2AA42AA42AA42AAA57
:107170002AB22FA220012001000100007E97529028
:107180004A967FE04AA652A07EAD0402040C047029
:10719000FF800470440C340204010000020002006D
:1071A000420033FC000900120004001800E0FF0058
:1071B00000E00018000400020001000000810081CE
:1071C000088288826884088808B00FC008B00888E0
:1071D0002884C88208820081008100000200020029
:1071E000420042004200420242017FFE4200420051
:1071F00042004200420002000200000000080810A5
:107200000820084008900B100C10FFFF0C100B100A
:10721000089008400820081000080000082008C056
:107220000B00FFFF090008C100067FF84000400086
:1072300040007FFC00020002001E0000020002026B
:10724000420433F800040002FFFA921292229302E1
:1072500092829242FEA2011A000200000000003E4B
:107260003E020202020202020202FFFE02020202C9
:10727000020202023F02003F000000000080010005
:1072800006001FFFE00002000C00F0001FFF1110BD
:10729000111011101110101010000000040804103B
:1072A0002420244024FF2492FD92269224922C92A2
:1072B000149224FF440004000400000000000000B9
:1072C00000007FFF410241024102410241024102AE
:1072D00041027FFF000000000000000000112012AA
:1072E000FFF4249024902498FFF52012000C7FF0E6
:1072F0004440444244417FFE0000000000017FFE04
:1073000004800480FCFF040100063FF8240127826A
:1073100024644418C4644782000100000008081077
:107320000820084008900B100C10FFFF0C100B10E9
:10733000089008400820081000080000080849309C
:1073400049FF7F22492249227F3F080090105110B7
:1073500031101FFF311051109010000040204222C8
:1073600045445AA84920EAA24CA140BE5CA0EAA02C
:1073700049204AA84C84404240400000010041009E
:107380004100410041004102410147FE45004900E2
:1073900051006100410001000100000000000000F8
:1073A000200400200C1020180E2010063FE00000E2
:1073B0001000000800000C21FFF421220421220605
:1073C00029220625220627FFF6272206292206293A
:1073D000220631221611223E01FFF60000040000B1
:1073E000000000000000000000010000653A0008F5
:1073F00001020C0500000000B94800080203010664
:1074000000000000C5460008030402070000000059
:107410002948000804090308000000008D46000800
:107420000505050100000000D54800080606060213
:1074300000000000E1460008070707030000000005
:10744000454800080808080400000000A946000894
:10745000090A040D00000000F14800080A0B090E9B
:1074600000000000614800080B0C0A0F000000003B
:10747000FD4600080C010B00000000009D480008BC
:107480000D0D0D09000000000D4900080E0E0E0A3A
:10749000000000007D4800080F0F0F0B00000000E7
:1074A0001947000804000008000000000000000266
:1074B000000100001000000004FA97999999D93F43
:1074C000AF788E1DC571CC3F9FC678D0099AC33F57
:1074D000935555555555E53F599322942449D23F2C
:1074E000DE03CB966446C73F44523EDF12F1C23FF3
:1074F000000000000000000002400000000000A0AA
:107500000000000005400000000000C8000000006E
:107510000C4000000000409C0000000019400000EA
:107520000020BCBE0000000034400000BFC91B8E1C
:1075300000000004B5400000504BCFD06607E2CFFA
:10754000010000006C4100003E8251AADFEEA7342A
:1075500001000000D9420000DCB5A0E23A301F97DC
:10756000FFFFFFFFB4450000FD25A0C8E9A3C14F00
:10757000FFFFFFFFFF3F0000000000800000000051
:10758000FF3F00000000008000000000C8750008F8
:10759000000000208405000028010008B0770008E2
:1075A000840500208C0F0000840100081C000000EE
:1075B00043000000F8FFFFFF0C0000000E00000079
:1075C0000F0000002E0000000158EAFF1009AA0178
:1075D0005BFE2F080A15AF08DA8F301A0F051AE381
:1075E000080A15EF0859203901A9105920B90822B5
:1075F000E06A3F08293019082A3E3029085918E95D
:10760000080A153F6039B00912086970E9305ADF7D
:10761000D049082BFE3E083EE3FFFC3E2F083AF817
:10762000903CE3FFF0905CE3FFE0105AC0104B8009
:107630003E101149085AFE084AFCC04CE3F80230DB
:107640004BF006503CE00E3E904BC01E083B803E87
:107650000812E05A7EF03AFE305BE001085A030857
:107660003B07FE404CE00FFE305A1F082C3FFE7EC9
:107670000819B85BFE8FDC3930213988A9084960C8
:10768000F918496059203EE3FF063EDFC84A0E085C
:107690004BFC1E084BF83E204BF07ED04BE0FEE842
:1076A0005AC1084B83FE2019A8091A6099105A7E06
:1076B000103BFEEF083A010829C969082920990101
:1076C00069106AFE10E908D93009810161481D7FFF
:1076D000F8FFFCC00CC20CC70CC38CC1CCC1CCC31E
:1076E0008CC70CCE0C9C0C39FC13F81C1018C84C21
:1076F000DCECCFCCC78CC78CCFCCDCECC84CC00C3E
:10770000FFFC7FF8601A9002680B67E01FF8300CEE
:1077100020044002024520047808100901F007F80F
:107720000FF81BFC2014FC1FFC3FFC7FFCCFFC036C
:10773000FC1CFC2FF803F801F0100D03C00FF01F24
:10774000F838FC603C401E100C1E188E1B8E1F8CDF
:107750001D8C119812106A209429721808C48CDFAD
:10776000ECDFECC40A4BC78C78491C4811C3CCCF62
:10777000ECC96CD92CD12CD36CDE4CCC0C1C311444
:10778000F07F451008E076453313954314B01A4650
:1077900084401C46399784A24A0468090102030404
:1077A000060708090C69100500020406080000001D
:04000005080001E905
:00000001FF
